:100000000C942A000C9447000C9447000C94470071
:100010000C9447000C9447000C9447000C94470044
:100020000C9447000C9447000C9447000C94470034
:100030000C9447000C9447000C9447000C94470024
:100040000C94C7180C9447000C9447000C9447007C
:100050000C94470011241FBECFE5D8E0DEBFCDBF12
:1000600010E0A0E6B0E0E6E7F9E302C005900D92EB
:10007000AA37B107D9F710E0AAE7B0E001C01D9296
:10008000AF37B107E1F70E9408190C94B91C0C9422
:100090000000EF92FF920F931F937B018C0120E0F1
:1000A00030E040E05FE40E94490388238CF0C801FF
:1000B000B70120E030E040E05FE40E94C1010E940F
:1000C000A9039B01AC01205030404040504806C07D
:1000D000C801B7010E94A9039B01AC01B901CA0183
:1000E0001F910F91FF90EF900895A0E0B0E0EBE733
:1000F000F0E00C94D819DC012B01FA019C919230AC
:1001000008F439C1EB018881823008F433C194309E
:1001100069F4843009F02FC111969C91119789815F
:10012000981709F428C1A1E7B0E025C1843009F48B
:1001300021C18230A9F4923009F01DC19A01AD01AC
:1001400088E0EA010990AE01E90109929E0181501F
:10015000C1F7E201898111969C918923818308C1AD
:10016000923009F407C112962D903C901397EB0141
:100170008A819B811496AD90BD90CD90DC901797AD
:10018000EC80FD800E811F819101281B390BB90184
:1001900037FF04C066277727621B730B6032710537
:1001A0000CF061C0121613066CF537014801062EDB
:1001B00004C096948794779467940A94D2F721E0C8
:1001C00030E040E050E004C0220F331F441F551FB1
:1001D0006A95D2F721503040404050402E213F21B7
:1001E00040235123211531054105510521F021E01E
:1001F00030E040E050E079018A01E628F72808293C
:1002000019293CC0232BD1F1260E371E350146019A
:10021000062E04C096948794779467940A94D2F734
:1002200021E030E040E050E004C0220F331F441FC3
:10023000551F6A95D2F721503040404050402A2146
:100240003B214C215D21211531054105510521F04E
:1002500021E030E040E050E059016A01A628B728CB
:10026000C828D9280BC0821593052CF01C01AA249C
:10027000BB24650103C0EE24FF24870111969C91E5
:10028000D20111968C91981709F445C0992339F041
:10029000A80197012A193B094C095D0906C0A6016E
:1002A00095012E193F09400B510B57FD08C01182D3
:1002B0003382228224833583468357831DC081E0A5
:1002C00081833382228288279927DC01821B930B4A
:1002D000A40BB50B84839583A683B7830DC0220F2F
:1002E000331F441F551F24833583468357838281E0
:1002F000938101979383828324813581468157813D
:10030000DA01C9010197A109B1098F5F9F4FAF4F72
:10031000BF4328F30BC0918333822282EA0CFB1C7B
:100320000C1D1D1DE482F5820683178383E0808304
:10033000248135814681578157FF1AC0C901AA27F8
:1003400097FDA095BA2F81709070A070B0705695EF
:10035000479537952795822B932BA42BB52B848318
:100360009583A683B7838281938101969383828349
:10037000DF0101C0D201CD01CDB7DEB7E2E10C94BF
:10038000F419A0E2B0E0E7ECF1E00C94E419698321
:100390007A838B839C832D833E834F835887E9E048
:1003A000EE2EF12CEC0EFD1ECE010196B7010E943F
:1003B000D2048E010F5E1F4FCE010596B8010E9438
:1003C000D2048A8991E089278A8BC701B801AE01DE
:1003D000475E5F4F0E9475000E94FD03A096E6E015
:1003E0000C94001AA0E2B0E0E8EFF1E00C94E419FC
:1003F00069837A838B839C832D833E834F835887C5
:10040000F9E0EF2EF12CEC0EFD1ECE010196B701A6
:100410000E94D2048E010F5E1F4FCE010596B801D7
:100420000E94D204C701B801AE01475E5F4F0E942F
:1004300075000E94FD03A096E6E00C94001AA0E26D
:10044000B0E0E5E2F2E00C94D81969837A838B83FB
:100450009C832D833E834F835887CE010196BE0136
:10046000675F7F4F0E94D204CE010596BE016F5E8A
:100470007F4F0E94D2049985923088F0898982301A
:10048000C8F0943019F4823051F404C0843029F457
:10049000923081F481E790E0C6C0923049F420E0C8
:1004A0009A858A89981321E02A87CE010996BBC0D4
:1004B000823049F420E09A858A89981321E02A8BBA
:1004C000CE014196B0C02D843E844F8458886D88FB
:1004D0007E888F88988CEE24FF248701AA24BB2471
:1004E000650140E050E060E070E0E0E0F0E0C10174
:1004F00081709070892BE9F0E60CF71C081D191D1E
:100500009A01AB012A0D3B1D4C1D5D1D80E090E062
:10051000A0E0B0E0E614F7040805190520F481E036
:1005200090E0A0E0B0E0BA01A901480F591F6A1F8E
:100530007B1FAA0CBB1CCC1CDD1C97FE08C081E0F5
:1005400090E0A0E0B0E0A82AB92ACA2ADB2A3196B6
:10055000E032F10549F0660C771C881C991C569412
:10056000479437942794C3CFFA85EA892B893C892D
:100570008B859C85280F391F2E5F3F4F17C0CA01FE
:1005800081709070892B61F016950795F794E79428
:1005900080E090E0A0E0B0E8E82AF92A0A2B1B2BC3
:1005A00076956795579547952F5F3F4F77FDE7CF36
:1005B0000CC0440F551F661F771F17FD4160EE0CDE
:1005C000FF1C001F111F21503040403090E05907A0
:1005D00090E0690790E4790760F32B8F3C8FDB0193
:1005E000CA018F779070A070B07080349105A1051A
:1005F000B10561F447FD0AC0E114F10401051105DC
:1006000029F0405C5F4F6F4F7F4F40781A8EFE1786
:1006100011F081E08A8F4D8F5E8F6F8F78A383E01A
:10062000898FCE0149960E94FD03A096E2E10C94C9
:10063000F419A8E1B0E0EFE1F3E00C94E419698368
:100640007A838B839C832D833E834F83588789E0F5
:10065000E82EF12CEC0EFD1ECE010196B7010E9492
:10066000D2048E010F5E1F4FCE010596B8010E9485
:10067000D2048985823040F08989823028F0C70110
:10068000B8010E944A0501C08FEF6896E6E00C941D
:10069000001AA8E1B0E0EFE4F3E00C94E4196983F8
:1006A0007A838B839C832D833E834F83588789E095
:1006B000E82EF12CEC0EFD1ECE010196B7010E9432
:1006C000D2048E010F5E1F4FCE010596B8010E9425
:1006D000D2048985823040F08989823028F0C701B0
:1006E000B8010E944A0501C08FEF6896E6E00C94BD
:1006F000001AA8E1B0E0EFE7F3E00C94E419698395
:100700007A838B839C832D833E834F83588789E034
:10071000E82EF12CEC0EFD1ECE010196B7010E94D1
:10072000D2048E010F5E1F4FCE010596B8010E94C4
:10073000D2048985823040F08989823028F0C7014F
:10074000B8010E944A0501C081E06896E6E00C9479
:10075000001AACE0B0E0EFEAF3E00C94E81969832A
:100760007A838B839C83CE010196BE016B5F7F4FA2
:100770000E94D2048D81823061F1823050F1843048
:1007800021F48E81882351F12EC02F81388537FDC9
:1007900020C06E812F3131051CF06623F9F023C093
:1007A0008EE190E0821B930B29853A854B855C8511
:1007B00004C056954795379527958A95D2F76623B5
:1007C000B1F050954095309521953F4F4F4F5F4F79
:1007D0000EC020E030E040E050E009C02FEF3FEFD6
:1007E0004FEF5FE704C020E030E040E050E8B9019F
:1007F000CA012C96E2E00C94041ADF92EF92FF9269
:100800000F931F93FC01E480F58006811781D1804E
:100810008081823048F480E090E0A0E1B0E0E82AF6
:10082000F92A0A2B1B2BA5C0843009F49FC0823003
:1008300021F4EE24FF24870105C0E114F104010531
:10084000110519F4E0E0F0E096C0628173819FEF3A
:10085000623879070CF05BC022E83FEF261B370BAC
:100860002A3131052CF020E030E040E050E02AC091
:10087000B801A701022E04C0769567955795479554
:100880000A94D2F781E090E0A0E0B0E004C0880FC5
:10089000991FAA1FBB1F2A95D2F70197A109B10979
:1008A0008E219F21A023B1230097A105B10521F03E
:1008B00081E090E0A0E0B0E09A01AB01282B392B59
:1008C0004A2B5B2BDA01C9018F779070A070B07052
:1008D00080349105A105B10539F427FF09C0205CDA
:1008E0003F4F4F4F5F4F04C0215C3F4F4F4F5F4F13
:1008F000E0E0F0E02030A0E03A07A0E04A07A0E402
:100900005A0710F0E1E0F0E079018A0127C0603871
:10091000710564F5FB01E158FF4FD801C7018F77DE
:100920009070A070B07080349105A105B10539F4C4
:10093000E7FE0DC080E490E0A0E0B0E004C08FE3EB
:1009400090E0A0E0B0E0E80EF91E0A1F1B1F17FFA1
:1009500005C016950795F794E794319687E01695AC
:100960000795F794E7948A95D1F705C0EE24FF2404
:100970008701EFEFF0E06E2F679566276795902F60
:100980009F77D794DD24D7948E2F8695492F462BB9
:10099000582F5D29B701CA011F910F91FF90EF9069
:1009A000DF900895FC01DB01408151812281622F9B
:1009B0006F7770E0221F2227221F9381892F880FD3
:1009C000822B282F30E0991F9927991F11969C930D
:1009D000119721153105A9F54115510561057105DD
:1009E00011F482E037C082E89FEF13969C938E93B8
:1009F00012979A01AB0167E0220F331F441F551F66
:100A00006A95D1F783E08C930DC0220F331F441FEA
:100A1000551F12968D919C911397019713969C9355
:100A20008E931297203080E0380780E0480780E4FA
:100A3000580758F314962D933D934D935C93179755
:100A400008952F3F310579F4411551056105710570
:100A500019F484E08C93089564FF03C081E08C93C3
:100A600012C01C9210C02F57304013963C932E9307
:100A7000129783E08C9387E0440F551F661F771F02
:100A80008A95D1F7706414964D935D936D937C9322
:100A9000179708951F93DC01FB019C91923008F495
:100AA00047C08081823008F443C0943051F41196DD
:100AB0001C91843099F58181682F70E0611B710968
:100AC0003FC0843021F0923031F48230B9F181811D
:100AD000882389F12DC011961C9111978230F1F075
:100AE00081811817D9F412962D913C911397828128
:100AF00093818217930794F028173907BCF0149656
:100B00008D919D910D90BC91A02D248135814681C0
:100B10005781281739074A075B0718F4112341F05A
:100B20000AC082179307A407B50740F4112319F0F0
:100B300061E070E005C06FEF7FEF02C060E070E041
:100B4000CB011F910895DF93CF9300D000D00F9277
:100B5000CDB7DEB789836A834B838A81883008F0FA
:100B6000D5C08981843008F0D1C08981282F30E038
:100B70003D832C838C819D818130910509F443C094
:100B80002C813D81223031052CF48C819D81009790
:100B900071F0BCC02C813D812230310509F45FC069
:100BA0008C819D818330910509F485C0AFC08B8114
:100BB0008130A1F4AAE3B0E0EAE3F0E08081482FBD
:100BC0008A81282F30E081E090E0022E02C0880F59
:100BD000991F0A94E2F7842B8C9398C0AAE3B0E0A3
:100BE000EAE3F0E08081482F8A81282F30E081E01D
:100BF00090E0022E02C0880F991F0A94E2F78095B8
:100C000084238C9383C08B818130A1F4A7E3B0E06F
:100C1000E7E3F0E08081482F8A81282F30E081E0EF
:100C200090E0022E02C0880F991F0A94E2F7842BED
:100C30008C936CC0A7E3B0E0E7E3F0E08081482F3D
:100C40008A81282F30E081E090E0022E02C0880FD8
:100C5000991F0A94E2F7809584238C9357C08B8167
:100C60008130A1F4A4E3B0E0E4E3F0E08081482F18
:100C70008A81282F30E081E090E0022E02C0880FA8
:100C8000991F0A94E2F7842B8C9340C0A4E3B0E050
:100C9000E4E3F0E08081482F8A81282F30E081E072
:100CA00090E0022E02C0880F991F0A94E2F7809507
:100CB00084238C932BC08B818130A1F4A1E3B0E01D
:100CC000E1E3F0E08081482F8A81282F30E081E045
:100CD00090E0022E02C0880F991F0A94E2F7842B3D
:100CE0008C9314C0A1E3B0E0E1E3F0E08081482FF1
:100CF0008A81282F30E081E090E0022E02C0880F28
:100D0000991F0A94E2F7809584238C930F900F909B
:100D10000F900F900F90CF91DF910895DF93CF93B5
:100D200000D000D00F92CDB7DEB789836A834B83A2
:100D30008A81883008F0D5C08981843008F0D1C01C
:100D40008981282F30E03D832C838C819D818130E7
:100D5000910509F443C02C813D81223031052CF4EA
:100D60008C819D81009771F0BCC02C813D81223027
:100D7000310509F45FC08C819D818330910509F4B0
:100D800085C0AFC08B818130A1F4ABE3B0E0EBE371
:100D9000F0E08081482F8A81282F30E081E090E0C8
:100DA000022E02C0880F991F0A94E2F7842B8C93BD
:100DB00098C0ABE3B0E0EBE3F0E08081482F8A819C
:100DC000282F30E081E090E0022E02C0880F991FAA
:100DD0000A94E2F7809584238C9383C08B818130C1
:100DE000A1F4A8E3B0E0E8E3F0E08081482F8A8135
:100DF000282F30E081E090E0022E02C0880F991F7A
:100E00000A94E2F7842B8C936CC0A8E3B0E0E8E38B
:100E1000F0E08081482F8A81282F30E081E090E047
:100E2000022E02C0880F991F0A94E2F7809584234E
:100E30008C9357C08B818130A1F4A5E3B0E0E5E34A
:100E4000F0E08081482F8A81282F30E081E090E017
:100E5000022E02C0880F991F0A94E2F7842B8C930C
:100E600040C0A5E3B0E0E5E3F0E08081482F8A814F
:100E7000282F30E081E090E0022E02C0880F991FF9
:100E80000A94E2F7809584238C932BC08B81813068
:100E9000A1F4A2E3B0E0E2E3F0E08081482F8A8190
:100EA000282F30E081E090E0022E02C0880F991FC9
:100EB0000A94E2F7842B8C9314C0A2E3B0E0E2E33F
:100EC000F0E08081482F8A81282F30E081E090E097
:100ED000022E02C0880F991F0A94E2F7809584239E
:100EE0008C930F900F900F900F900F90CF91DF91F8
:100EF0000895DF93CF9300D000D00F92CDB7DEB727
:100F00008A836B8319828B81883008F084C08A8140
:100F1000843008F080C08A81282F30E03D832C8304
:100F20004C815D814130510579F18C819D81823008
:100F3000910534F42C813D812115310569F06BC098
:100F40004C815D8142305105B9F18C819D818330A6
:100F5000910509F449C05FC0E9E3F0E08081282FE2
:100F600030E08B81882F90E0A90102C0559547950C
:100F70008A95E2F7CA0181709070882319F081E0A8
:100F8000898349C0198247C0E6E3F0E08081282FB9
:100F900030E08B81882F90E0A90102C055954795DC
:100FA0008A95E2F7CA0181709070882319F081E078
:100FB000898331C019822FC0E3E3F0E08081282FBC
:100FC00030E08B81882F90E0A90102C055954795AC
:100FD0008A95E2F7CA0181709070882319F081E048
:100FE000898319C0198217C0E0E3F0E08081282FBF
:100FF00030E08B81882F90E0A90102C0559547957C
:101000008A95E2F7CA0181709070882319F081E017
:10101000898301C0198289810F900F900F900F90E2
:101020000F90CF91DF910895DF93CF9300D000D040
:10103000CDB7DEB789836A838981843090F5898151
:10104000282F30E03C832B838B819C81813091055C
:10105000D1F02B813C81223031052CF48B819C8195
:10106000009761F01EC02B813C812230310581F058
:101070008B819C818330910581F013C0EAE3F0E01D
:101080008A8180830EC0E7E3F0E08A81808309C013
:10109000E4E3F0E08A81808304C0E1E3F0E08A8148
:1010A00080830F900F900F900F90CF91DF91089554
:1010B000DF93CF9300D000D0CDB7DEB789836A83AA
:1010C0008981843090F58981282F30E03C832B83FF
:1010D0008B819C8181309105D1F02B813C81223024
:1010E00031052CF48B819C81009761F01EC02B810F
:1010F0003C812230310581F08B819C8183309105C8
:1011000081F013C0EBE3F0E08A8180830EC0E8E356
:10111000F0E08A81808309C0E5E3F0E08A81808382
:1011200004C0E2E3F0E08A8180830F900F900F907B
:101130000F90CF91DF910895DF93CF9300D000D02F
:10114000CDB7DEB78A8319828A81843090F58A818F
:10115000282F30E03C832B838B819C81813091054B
:10116000D1F02B813C81223031052CF48B819C8184
:10117000009761F01EC02B813C812230310581F047
:101180008B819C818330910581F013C0E9E3F0E00D
:10119000808189830EC0E6E3F0E08081898309C005
:1011A000E3E3F0E08081898304C0E0E3F0E0808144
:1011B000898389810F900F900F900F90CF91DF91CD
:1011C0000895DF93CF93CDB7DEB7EAE3F0E0108266
:1011D000E7E3F0E01082E4E3F0E08FEF8083E1E307
:1011E000F0E080E38083EBE3F0E01082E8E3F0E0FE
:1011F0001082E5E3F0E01082E2E3F0E01082CF91AC
:10120000DF910895DF93CF93CDB7DEB72E970FB65A
:10121000F894DEBF0FBECDBF8A836B834C8381E021
:1012200089838A81843008F00CC18B81883008F072
:1012300008C18C81813021F08C81882309F001C1A3
:101240008A81282F30E03E872D878D859E858130CD
:10125000910509F44FC02D853E85223031052CF4CF
:101260008D859E85009771F0EDC02D853E852230DD
:10127000310509F477C08D859E858330910509F489
:10128000A9C0E0C08C81282F30E03C872B878B855C
:101290009C850097D1F02B853C852130310509F0E4
:1012A000D1C0AAE3B0E0EAE3F0E08081482F8B816F
:1012B000282F30E081E090E0022E02C0880F991FB5
:1012C0000A94E2F7842B8C93BDC0AAE3B0E0EAE372
:1012D000F0E08081482F8B81282F30E081E090E082
:1012E000022E02C0880F991F0A94E2F7809584238A
:1012F0008C93A8C08C81282F30E03A872987898574
:101300009A850097D1F029853A852130310509F079
:1013100099C0A7E3B0E0E7E3F0E08081482F8B813C
:10132000282F30E081E090E0022E02C0880F991F44
:101330000A94E2F7842B8C9385C0A7E3B0E0E7E33F
:10134000F0E08081482F8B81282F30E081E090E011
:10135000022E02C0880F991F0A94E2F78095842319
:101360008C9370C08C81282F30E038872F838F8139
:1013700098850097D1F02F8138852130310509F00B
:1013800061C0A4E3B0E0E4E3F0E08081482F8B810A
:10139000282F30E081E090E0022E02C0880F991FD4
:1013A0000A94E2F7842B8C934DC0A4E3B0E0E4E30D
:1013B000F0E08081482F8B81282F30E081E090E0A1
:1013C000022E02C0880F991F0A94E2F780958423A9
:1013D0008C9338C08C81282F30E03E832D838D8103
:1013E0009E810097C9F02D813E812130310551F554
:1013F000A1E3B0E0E1E3F0E08081482F8B81282F6A
:1014000030E081E090E0022E02C0880F991F0A941C
:10141000E2F7842B8C9316C0A1E3B0E0E1E3F0E0A7
:101420008081482F8B81282F30E081E090E0022ED0
:1014300002C0880F991F0A94E2F7809584238C9349
:1014400001C0198289812E960FB6F894DEBF0FBEB7
:10145000CDBFCF91DF910895DF93CF93CDB7DEB7A6
:101460002F970FB6F894DEBF0FBECDBF8B836C8372
:101470004D8381E08A838B81843008F013C18C8195
:10148000883008F00FC18D81882321F08D81813053
:1014900009F008C18B81282F30E03F872E878E8589
:1014A0009F858130910509F450C02E853F852230FB
:1014B00031052CF48E859F85009771F0F4C02E8540
:1014C0003F852230310509F479C08E859F858330B0
:1014D000910509F4ADC0E7C08D81282F30E03D872C
:1014E0002C878C859D850097C9F02C853D85213002
:1014F000310549F5ABE3B0E0EBE3F0E08081482F44
:101500008C81282F30E081E090E0022E02C0880F0D
:10151000991F0A94E2F7842B8C93C5C0ABE3B0E02B
:10152000EBE3F0E08081482F8C81282F30E081E0D0
:1015300090E0022E02C0880F991F0A94E2F780956E
:1015400084238C93B0C01A82AEC08D81282F30E0E6
:101550003B872A878A859B850097C9F02A853B852A
:101560002130310549F5A8E3B0E0E8E3F0E08081FF
:10157000482F8C81282F30E081E090E0022E02C0BD
:10158000880F991F0A94E2F7842B8C938CC0A8E3F0
:10159000B0E0E8E3F0E08081482F8C81282F30E034
:1015A00081E090E0022E02C0880F991F0A94E2F7B2
:1015B000809584238C9377C01A8275C08D81282FE3
:1015C00030E03987288788859985009731F028850C
:1015D000398521303105B1F029C0A5E3B0E0E5E35C
:1015E000F0E08081482F8C81282F30E081E090E06E
:1015F000022E02C0880F991F0A94E2F78095842377
:101600008C9351C0A5E3B0E0E5E3F0E08081482F82
:101610008C81282F30E081E090E0022E02C0880FFC
:10162000991F0A94E2F7842B8C933DC01A823BC029
:101630008D81282F30E03F832E838E819F810097FC
:1016400031F02E813F8121303105B1F029C0A5E371
:10165000B0E0E5E3F0E08081482F8C81282F30E076
:1016600081E090E0022E02C0880F991F0A94E2F7F1
:10167000809584238C9317C0A2E3B0E0E2E3F0E00E
:101680008081482F8C81282F30E081E090E0022E6D
:1016900002C0880F991F0A94E2F7842B8C9303C031
:1016A0001A8201C019828A812F960FB6F894DEBF84
:1016B0000FBECDBFCF91DF910895DF93CF93CDB70C
:1016C000DEB728970FB6F894DEBF0FBECDBF8B8371
:1016D0006C835E834D8381E08A838B81843008F044
:1016E0009FC08C81883008F09BC08D819E810097BF
:1016F00009F496C08B81282F30E038872F834F81E3
:10170000588541305105A9F18F8198858230910526
:1017100034F42F8138852115310571F082C04F8155
:1017200058854230510509F441C08F819885833036
:10173000910509F458C075C0E9E3F0E08081282FD5
:1017400030E08C81882F90E0A90102C05595479523
:101750008A95E2F7CA01817089838981882321F4FF
:10176000ED81FE8110825DC0ED81FE8181E080838C
:1017700058C0E6E3F0E08081282F30E08C81882F8C
:1017800090E0A90102C0559547958A95E2F7CA01F4
:10179000817089838981882321F4ED81FE81108203
:1017A00040C0ED81FE8181E080833BC0E3E3F0E057
:1017B0008081282F30E08C81882F90E0A90102C021
:1017C000559547958A95E2F7CA0181708983898189
:1017D000882321F4ED81FE81108223C0ED81FE81FA
:1017E00081E080831EC0E0E3F0E08081282F30E0BC
:1017F0008C81882F90E0A90102C0559547958A9564
:10180000E2F7CA01817089838981882321F4ED81FF
:10181000FE81108206C0ED81FE8181E0808301C0DF
:101820001A828A8128960FB6F894DEBF0FBECDBF0C
:10183000CF91DF910895DF93CF93CDB7DEB72D978A
:101840000FB6F894DEBF0FBECDBF89836A8389814E
:10185000282F30E03C872B878B859C858130910534
:1018600071F12B853C85223031052CF48B859C85CC
:10187000009769F06BC02B853C8522303105B9F1AA
:101880008B859C858330910509F449C05FC08A81AE
:10189000282F30E03A87298789859A85009731F08B
:1018A00029853A852130310529F050C0EAE3F0E07E
:1018B00010824CC0EAE3F0E08FEF808347C08A815A
:1018C000282F30E038872F838F819885009731F05B
:1018D0002F8138852130310529F038C0E7E3F0E069
:1018E000108234C0E7E3F0E08FEF80832FC08A815D
:1018F000282F30E03E832D838D819E81009731F02B
:101900002D813E812130310529F020C0E4E3F0E053
:1019100010821CC0E4E3F0E08FEF808317C08A815F
:10192000282F30E03C832B838B819C81009731F002
:101930002B813C812130310529F008C0E1E3F0E042
:10194000108204C0E1E3F0E08FEF80832D960FB6A4
:10195000F894DEBF0FBECDBFCF91DF910895DF9326
:10196000CF93CDB7DEB72D970FB6F894DEBF0FBE7D
:10197000CDBF8A836B8381E089838A81843008F0BC
:1019800080C08A81282F30E03D872C878C859D85FB
:101990008130910571F12C853D85223031052CF483
:1019A0008C859D85009769F06DC02C853D85223022
:1019B0003105B9F18C859D858330910509F449C0C5
:1019C00061C08B81282F30E03B872A878A859B85E1
:1019D000009731F02A853B852130310529F052C02E
:1019E000EBE3F0E010824EC0EBE3F0E08FEF80839A
:1019F00049C08B81282F30E03987288788859985D1
:101A0000009731F0288539852130310529F03AC019
:101A1000E8E3F0E0108236C0E8E3F0E08FEF808387
:101A200031C08B81282F30E03F832E838E819F81B0
:101A3000009731F02E813F812130310529F022C0FD
:101A4000E5E3F0E010821EC0E5E3F0E08FEF808375
:101A500019C08B81282F30E03D832C838C819D81A0
:101A6000009731F02C813D812130310529F00AC0E9
:101A7000E2E3F0E0108206C0E2E3F0E08FEF808363
:101A800001C0198289812D960FB6F894DEBF0FBE72
:101A9000CDBFCF91DF910895DF93CF9300D000D0D9
:101AA00000D0CDB7DEB78A837C836B8381E08983E6
:101AB0008A81843008F03FC08B819C810097D9F1E6
:101AC0008A81282F30E03E832D838D819E81813055
:101AD0009105E1F02D813E81223031052CF48D817C
:101AE0009E81009761F028C02D813E812230310512
:101AF000A1F08D819E8183309105B1F01DC0E9E395
:101B0000F0E08081EB81FC81808316C0E6E3F0E0A9
:101B10008081EB81FC8180830FC0E3E3F0E0808172
:101B2000EB81FC81808308C0E0E3F0E08081EB8101
:101B3000FC81808301C01982898126960FB6F894B2
:101B4000DEBF0FBECDBFCF91DF9108958F92AF92D0
:101B5000CF92EF920F93DF93CF93CDB7DEB72C9751
:101B60000FB6F894DEBF0FBECDBF89836A834B8367
:101B70002C830D83EE82CF82A88689868981282FC7
:101B800030E03B872A878A859B858130910509F45F
:101B9000A8C02A853B85223031052CF48A859B8597
:101BA000009771F050C22A853B852230310509F437
:101BB00029C18A859B858330910509F4B4C143C24C
:101BC0008A81813041F4ABE3B0E0EBE3F0E0808167
:101BD00081608C9307C0ABE3B0E0EBE3F0E0808181
:101BE0008E7F8C938B81813041F4ABE3B0E0EBE3EB
:101BF000F0E0808182608C9307C0ABE3B0E0EBE360
:101C0000F0E080818D7F8C938C81813041F4ABE357
:101C1000B0E0EBE3F0E0808184608C9307C0ABE33D
:101C2000B0E0EBE3F0E080818B7F8C938D8181309D
:101C300041F4ABE3B0E0EBE3F0E0808188608C93AB
:101C400007C0ABE3B0E0EBE3F0E08081877F8C93EB
:101C50008E81813041F4ABE3B0E0EBE3F0E08081D2
:101C600080618C9307C0ABE3B0E0EBE3F0E08081F0
:101C70008F7E8C938F81813041F4ABE3B0E0EBE356
:101C8000F0E0808180628C9307C0ABE3B0E0EBE3CF
:101C9000F0E080818F7D8C938885813041F4ABE3C7
:101CA000B0E0EBE3F0E0808180648C9307C0ABE3AD
:101CB000B0E0EBE3F0E080818F7B8C93898581300D
:101CC00041F4ABE3B0E0EBE3F0E0808180688C931B
:101CD000BAC1ABE3B0E0EBE3F0E080818F778C93A7
:101CE000B2C18A81813041F4A8E3B0E0E8E3F0E0DA
:101CF000808181608C9307C0A8E3B0E0E8E3F0E066
:101D000080818E7F8C938B81813041F4A8E3B0E099
:101D1000E8E3F0E0808182608C9307C0A8E3B0E044
:101D2000E8E3F0E080818D7F8C938C81813041F4F9
:101D3000A8E3B0E0E8E3F0E0808184608C9307C022
:101D4000A8E3B0E0E8E3F0E080818B7F8C938D81A5
:101D5000813041F4A8E3B0E0E8E3F0E080818860FE
:101D60008C9307C0A8E3B0E0E8E3F0E08081877FD0
:101D70008C938E81813041F4A8E3B0E0E8E3F0E099
:101D8000808180618C9307C0A8E3B0E0E8E3F0E0D5
:101D900080818F7E8C938F81813041F4A8E3B0E005
:101DA000E8E3F0E0808180628C9307C0A8E3B0E0B4
:101DB000E8E3F0E080818F7D8C938885813041F469
:101DC000A8E3B0E0E8E3F0E0808180648C9307C092
:101DD000A8E3B0E0E8E3F0E080818F7B8C93898515
:101DE000813041F4A8E3B0E0E8E3F0E0808180686E
:101DF0008C9329C1A8E3B0E0E8E3F0E080818F771D
:101E00008C9321C18A81813041F4A5E3B0E0E5E300
:101E1000F0E0808181608C9307C0A5E3B0E0E5E34A
:101E2000F0E080818E7F8C938B81813041F4A5E33B
:101E3000B0E0E5E3F0E0808182608C9307C0A5E329
:101E4000B0E0E5E3F0E080818D7F8C938C81813080
:101E500041F4A5E3B0E0E5E3F0E0808184608C9399
:101E600007C0A5E3B0E0E5E3F0E080818B7F8C93D1
:101E70008D81813041F4A5E3B0E0E5E3F0E08081BD
:101E800088608C9307C0A5E3B0E0E5E3F0E08081D3
:101E9000877F8C938E81813041F4A5E3B0E0E5E348
:101EA000F0E0808180618C9307C0A5E3B0E0E5E3BA
:101EB000F0E080818F7E8C938F81813041F4A5E3A7
:101EC000B0E0E5E3F0E0808180628C9307C0A5E399
:101ED000B0E0E5E3F0E080818F7D8C9388858130F0
:101EE00041F4A5E3B0E0E5E3F0E0808180648C9309
:101EF00007C0A5E3B0E0E5E3F0E080818F7B8C9341
:101F00008985813041F4A5E3B0E0E5E3F0E080812C
:101F100080688C9398C0A5E3B0E0E5E3F0E08081B1
:101F20008F778C9390C08A81813041F4A2E3B0E036
:101F3000E2E3F0E0808181608C9307C0A2E3B0E02F
:101F4000E2E3F0E080818E7F8C938B81813041F4DD
:101F5000A2E3B0E0E2E3F0E0808182608C9307C00E
:101F6000A2E3B0E0E2E3F0E080818D7F8C938C818E
:101F7000813041F4A2E3B0E0E2E3F0E080818460EC
:101F80008C9307C0A2E3B0E0E2E3F0E080818B7FB6
:101F90008C938D81813041F4A2E3B0E0E2E3F0E084
:101FA000808188608C9307C0A2E3B0E0E2E3F0E0B8
:101FB0008081877F8C938E81813041F4A2E3B0E0F1
:101FC000E2E3F0E0808180618C9307C0A2E3B0E09F
:101FD000E2E3F0E080818F7E8C938F81813041F449
:101FE000A2E3B0E0E2E3F0E0808180628C9307C07E
:101FF000A2E3B0E0E2E3F0E080818F7D8C938885FE
:10200000813041F4A2E3B0E0E2E3F0E0808180645B
:102010008C9307C0A2E3B0E0E2E3F0E080818F7B25
:102020008C938985813041F4A2E3B0E0E2E3F0E0F3
:10203000808180688C9307C0A2E3B0E0E2E3F0E027
:1020400080818F778C932C960FB6F894DEBF0FBEED
:10205000CDBFCF91DF910F91EF90CF90AF908F9048
:102060000895DF93CF93CDB7DEB7E9970FB6F89415
:10207000DEBF0FBECDBF89AF83E064E040E00E94C9
:102080008E0680E090E0A0E8BFE38DAB9EABAFABE7
:10209000B8AF6DA97EA98FA998AD20E030E04AE7DE
:1020A00055E40E941F02DC01CB0189AB9AABABABBC
:1020B000BCAB69A97AA98BA99CA920E030E040E8D3
:1020C0005FE30E94790388232CF481E090E098ABD1
:1020D0008FA73FC069A97AA98BA99CA920E03FEFEF
:1020E0004FE757E40E94190318164CF56DA97EA915
:1020F0008FA998AD20E030E040E251E40E941F0239
:10210000DC01CB01BC01CD010E944900DC01CB0107
:1021100098AB8FA70FC080E991E09EA78DA78DA5F2
:102120009EA50197F1F79EA78DA78FA598A9019766
:1021300098AB8FA78FA598A9009769F714C069A9D4
:102140007AA98BA99CA90E944900DC01CB0198AB1C
:102150008FA78FA598A99CA78BA78BA59CA5019756
:10216000F1F79CA78BA783E065E041E00E948E0613
:1021700080E090E0A0E8BFE38FA398A7A9A7BAA743
:102180006FA178A589A59AA520E030E04AE755E43B
:102190000E941F02DC01CB018BA39CA3ADA3BEA3B5
:1021A0006BA17CA18DA19EA120E030E040E85FE31F
:1021B0000E94790388232CF481E090E09AA389A3FC
:1021C0003FC06BA17CA18DA19EA120E03FEF4FE716
:1021D00057E40E94190318164CF56FA178A589A53C
:1021E0009AA520E030E040E251E40E941F02DC01A9
:1021F000CB01BC01CD010E944900DC01CB019AA3B7
:1022000089A30FC080E991E098A38F8F8F8D98A14B
:102210000197F1F798A38F8F89A19AA101979AA3AB
:1022200089A389A19AA1009769F714C06BA17CA129
:102230008DA19EA10E944900DC01CB019AA389A334
:1022400089A19AA19E8F8D8F8D8D9E8D0197F1F71B
:102250009E8F8D8F82E069AD0E94580880E090E0EB
:10226000A0E8BFE3898F9A8FAB8FBC8F698D7A8D81
:102270008B8D9C8D20E030E04AE755E40E941F02E0
:10228000DC01CB018D8B9E8BAF8BB88F6D897E89E6
:102290008F89988D20E030E040E85FE30E94790369
:1022A00088232CF481E090E09C8B8B8B3FC06D8960
:1022B0007E898F89988D20E03FEF4FE757E40E9499
:1022C000190318164CF5698D7A8D8B8D9C8D20E045
:1022D00030E040E251E40E941F02DC01CB01BC016E
:1022E000CD010E944900DC01CB019C8B8B8B0FC080
:1022F00080E991E09A8B898B89899A890197F1F716
:102300009A8B898B8B899C8901979C8B8B8B8B8972
:102310009C89009769F714C06D897E898F89988D93
:102320000E944900DC01CB019C8B8B8B8B899C89A3
:10233000988B8F878F8598890197F1F7988B8F8776
:1023400083E065E040E00E948E0680E090E0A0E837
:10235000BFE38B879C87AD87BE876B857C858D852A
:102360009E8520E030E04AE755E40E941F02DC0130
:10237000CB018F839887A987BA876F8178858985F4
:102380009A8520E030E040E85FE30E9479038823EB
:102390002CF481E090E09E838D833FC06F8178852F
:1023A00089859A8520E03FEF4FE757E40E941903A3
:1023B00018164CF56B857C858D859E8520E030E078
:1023C00040E251E40E941F02DC01CB01BC01CD01BF
:1023D0000E944900DC01CB019E838D830FC080E900
:1023E00091E09C838B838B819C810197F1F79C8387
:1023F0008B838D819E8101979E838D838D819E81AC
:10240000009769F714C06F81788589859A850E9445
:102410004900DC01CB019E838D838D819E819A834F
:10242000898389819A810197F1F79A838983E99653
:102430000FB6F894DEBF0FBECDBFCF91DF910895E8
:102440000F931F93DF93CF93CDB7DEB7A6970FB649
:10245000F894DEBF0FBECDBF6BA37CA38DA39EA35C
:102460008DB79EB708970FB6F8949EBF0FBE8DBF6D
:10247000EDB7FEB73196CE0103969183808380E657
:1024800090E0938382838BA19CA1ADA1BEA18483A4
:102490009583A683B7830E94181A8DB79EB70896B6
:1024A0000FB6F8949EBF0FBE8DBF1A82198211C05D
:1024B00029813A81CE010396FC01E20FF31F80814E
:1024C000882F90E00E947D1289819A8101969A83DB
:1024D000898309811A81CE0103960E940F1A081779
:1024E000190730F3A6960FB6F894DEBF0FBECDBF26
:1024F000CF91DF911F910F910895DF93CF93CDB7C7
:10250000DEB7E9970FB6F894DEBF0FBECDBF89AF37
:1025100083E064E041E00E948E0680E090E0A0E865
:10252000BFE38DAB9EABAFABB8AF6DA97EA98FA952
:1025300098AD20E030E04AE755E40E941F02DC013C
:10254000CB0189AB9AABABABBCAB69A97AA98BA920
:102550009CA920E030E040E85FE30E9479038823F3
:102560002CF481E090E098AB8FA73FC069A97AA9CD
:102570008BA99CA920E03FEF4FE757E40E94190385
:1025800018164CF56DA97EA98FA998AD20E030E012
:1025900040E251E40E941F02DC01CB01BC01CD01ED
:1025A0000E944900DC01CB0198AB8FA70FC080E9E6
:1025B00091E09EA78DA78DA59EA50197F1F79EA7F7
:1025C0008DA78FA598A9019798AB8FA78FA598A9DC
:1025D000009769F714C069A97AA98BA99CA90E94E0
:1025E0004900DC01CB0198AB8FA78FA598A99CA7C8
:1025F0008BA78BA59CA50197F1F79CA78BA783E0E0
:1026000065E041E00E948E0680E090E0A0E8BFE334
:102610008FA398A7A9A7BAA76FA178A589A59AA5FE
:1026200020E030E04AE755E40E941F02DC01CB01C4
:102630008BA39CA3ADA3BEA36BA17CA18DA19EA1E6
:1026400020E030E040E85FE30E94790388232CF427
:1026500081E090E09AA389A33FC06BA17CA18DA1EA
:102660009EA120E03FEF4FE757E40E9419031816A0
:102670004CF56FA178A589A59AA520E030E040E24D
:1026800051E40E941F02DC01CB01BC01CD010E947C
:102690004900DC01CB019AA389A30FC080E991E036
:1026A00098A38F8F8F8D98A10197F1F798A38F8FA3
:1026B00089A19AA101979AA389A389A19AA10097B8
:1026C00069F714C06BA17CA18DA19EA10E94490055
:1026D000DC01CB019AA389A389A19AA19E8F8D8F3A
:1026E0008D8D9E8D0197F1F79E8F8D8F82E069AD64
:1026F0000E94580880E090E0A0E8BFE3898F9A8F9D
:10270000AB8FBC8F698D7A8D8B8D9C8D20E030E0F6
:102710004AE755E40E941F02DC01CB018D8B9E8BA2
:10272000AF8BB88F6D897E898F89988D20E030E0DE
:1027300040E85FE30E94790388232CF481E090E075
:102740009C8B8B8B3FC06D897E898F89988D20E013
:102750003FEF4FE757E40E94190318164CF5698DB7
:102760007A8D8B8D9C8D20E030E040E251E40E9418
:102770001F02DC01CB01BC01CD010E944900DC013C
:10278000CB019C8B8B8B0FC080E991E09A8B898B5E
:1027900089899A890197F1F79A8B898B8B899C8912
:1027A00001979C8B8B8B8B899C89009769F714C050
:1027B0006D897E898F89988D0E944900DC01CB014B
:1027C0009C8B8B8B8B899C89988B8F878F85988925
:1027D0000197F1F7988B8F8783E065E040E00E94D6
:1027E0008E0680E090E0A0E8BFE38B879C87AD87F2
:1027F000BE876B857C858D859E8520E030E04AE72D
:1028000055E40E941F02DC01CB018F839887A987C2
:10281000BA876F81788589859A8520E030E040E825
:102820005FE30E94790388232CF481E090E09E838B
:102830008D833FC06F81788589859A8520E03FEF41
:102840004FE757E40E94190318164CF56B857C85F9
:102850008D859E8520E030E040E251E40E941F0219
:10286000DC01CB01BC01CD010E944900DC01CB01A0
:102870009E838D830FC080E991E09C838B838B8145
:102880009C810197F1F79C838B838D819E810197B9
:102890009E838D838D819E81009769F714C06F811F
:1028A000788589859A850E944900DC01CB019E8349
:1028B0008D838D819E819A83898389819A810197F5
:1028C000F1F79A838983E9960FB6F894DEBF0FBEBD
:1028D000CDBFCF91DF910895DF93CF93CDB7DEB712
:1028E0002E970FB6F894DEBF0FBECDBF83E064E035
:1028F00041E00E94A30583E065E041E00E94A3055A
:1029000082E061E00E94140880E090E0A0EAB1E477
:102910008B879C87AD87BE876B857C858D859E85E3
:1029200020E030E04AE755E40E941F02DC01CB01C1
:102930008F839887A987BA876F81788589859A85DB
:1029400020E030E040E85FE30E94790388232CF424
:1029500081E090E09E838D833FC06F81788589857B
:102960009A8520E03FEF4FE757E40E9419031816BD
:102970004CF56B857C858D859E8520E030E040E2BE
:1029800051E40E941F02DC01CB01BC01CD010E9479
:102990004900DC01CB019E838D830FC080E991E06B
:1029A0009C838B838B819C810197F1F79C838B8324
:1029B0008D819E8101979E838D838D819E8100975D
:1029C00069F714C06F81788589859A850E944900CE
:1029D000DC01CB019E838D838D819E819A838983C7
:1029E00089819A810197F1F79A83898388E30E940C
:1029F00031108CE00E94311081E00E9431102E963F
:102A00000FB6F894DEBF0FBECDBFCF91DF91089512
:102A1000DF93CF9300D000D0CDB7DEB789836A8330
:102A200089818832C0F48981282F30E03C832B8350
:102A30008B819C81009731F02B813C8121303105C5
:102A400031F009C08A8180580E94311004C08A8107
:102A500080540E9431100F900F900F900F90CF91E3
:102A6000DF910895DF93CF9300D00F92CDB7DEB7FB
:102A70009B838A8319820EC08981282F30E08A8146
:102A80009B81FC01E20FF31F80810E947D128981EE
:102A90008F5F89838981282F30E08A819B81FC01A7
:102AA000E20FF31F8081882339F70F900F900F906A
:102AB000CF91DF910895DF93CF93CDB7DEB72897FD
:102AC0000FB6F894DEBF0FBECDBF8B836C835E83E1
:102AD0004D8338872F831A8281E089838B818823F5
:102AE00049F48C81803130F48C818F7080680E9431
:102AF00031103AC08B818130B9F58C818031A0F5DD
:102B00008C818F70806C0E9431102EC08A81282F9A
:102B100030E08D819E81FC01E20FF31F80810E94D5
:102B20007D128A818F5F8A838B81882371F48C81E7
:102B3000833058F08A818B3041F481E060E00E945C
:102B4000081589818F5F89830BC08B81813041F4A7
:102B50008C81833028F08A818B3011F40E94C81553
:102B6000EF81F885898180838A81282F30E08D81EB
:102B70009E81FC01E20FF31F8081882339F628969D
:102B80000FB6F894DEBF0FBECDBFCF91DF91089591
:102B9000DF93CF93CDB7DEB72E970FB6F894DEBF95
:102BA0000FBECDBF81E00E94311080E090E0A0E038
:102BB000B0E48B879C87AD87BE876B857C858D85D0
:102BC0009E8520E030E04AE755E40E941F02DC01C8
:102BD000CB018F839887A987BA876F81788589858C
:102BE0009A8520E030E040E85FE30E947903882383
:102BF0002CF481E090E09E838D833FC06F817885C7
:102C000089859A8520E03FEF4FE757E40E9419033A
:102C100018164CF56B857C858D859E8520E030E00F
:102C200040E251E40E941F02DC01CB01BC01CD0156
:102C30000E944900DC01CB019E838D830FC080E997
:102C400091E09C838B838B819C810197F1F79C831E
:102C50008B838D819E8101979E838D838D819E8143
:102C6000009769F714C06F81788589859A850E94DD
:102C70004900DC01CB019E838D838D819E819A83E7
:102C8000898389819A810197F1F79A8389832E96A6
:102C90000FB6F894DEBF0FBECDBFCF91DF91089580
:102CA000DF93CF93CDB7DEB72E970FB6F894DEBF84
:102CB0000FBECDBF88E10E94311080E090E0A0EA15
:102CC000B1E48B879C87AD87BE876B857C858D85BE
:102CD0009E8520E030E04AE755E40E941F02DC01B7
:102CE000CB018F839887A987BA876F81788589857B
:102CF0009A8520E030E040E85FE30E947903882372
:102D00002CF481E090E09E838D833FC06F817885B5
:102D100089859A8520E03FEF4FE757E40E94190329
:102D200018164CF56B857C858D859E8520E030E0FE
:102D300040E251E40E941F02DC01CB01BC01CD0145
:102D40000E944900DC01CB019E838D830FC080E986
:102D500091E09C838B838B819C810197F1F79C830D
:102D60008B838D819E8101979E838D838D819E8132
:102D7000009769F714C06F81788589859A850E94CC
:102D80004900DC01CB019E838D838D819E819A83D6
:102D9000898389819A810197F1F79A8389832E9695
:102DA0000FB6F894DEBF0FBECDBFCF91DF9108956F
:102DB000DF93CF93CDB7DEB72E970FB6F894DEBF73
:102DC0000FBECDBF8CE10E94311080E090E0A0EA00
:102DD000B1E48B879C87AD87BE876B857C858D85AD
:102DE0009E8520E030E04AE755E40E941F02DC01A6
:102DF000CB018F839887A987BA876F81788589856A
:102E00009A8520E030E040E85FE30E947903882360
:102E10002CF481E090E09E838D833FC06F817885A4
:102E200089859A8520E03FEF4FE757E40E94190318
:102E300018164CF56B857C858D859E8520E030E0ED
:102E400040E251E40E941F02DC01CB01BC01CD0134
:102E50000E944900DC01CB019E838D830FC080E975
:102E600091E09C838B838B819C810197F1F79C83FC
:102E70008B838D819E8101979E838D838D819E8121
:102E8000009769F714C06F81788589859A850E94BB
:102E90004900DC01CB019E838D838D819E819A83C5
:102EA000898389819A810197F1F79A8389832E9684
:102EB0000FB6F894DEBF0FBECDBFCF91DF9108955E
:102EC0000F93DF93CF93CDB7DEB728970FB6F89463
:102ED000DEBF0FBECDBF8B837D836C834E832F837C
:102EE000088788850E9431101A8219820FC02981B3
:102EF0003A818C819D81FC01E20FF31F80810E9449
:102F00007D1289819A8101969A83898389819A8128
:102F10008830910564F38E816F810E9408158B8142
:102F20000E947D128F81803148F00E94C81580E098
:102F300060E00E9408158B810E947D1228960FB6D2
:102F4000F894DEBF0FBECDBFCF91DF910F910895F2
:102F5000DF93CF93CDB7DEB7A7E2B0E0E7E2F0E0D2
:102F600080818F778C93A7E2B0E0E7E2F0E0808188
:102F700080648C93A7E2B0E0E7E2F0E080818F7D8F
:102F80008C93A6E2B0E0E6E2F0E080818F7D8C9346
:102F9000A6E2B0E0E6E2F0E0808184608C93A6E2F5
:102FA000B0E0E6E2F0E0808182608C93A6E2B0E0DF
:102FB000E6E2F0E080818E7F8C93A6E2B0E0E6E26C
:102FC000F0E0808180688C93CF91DF910895DF934A
:102FD000CF93CDB7DEB728970FB6F894DEBF0FBEFC
:102FE000CDBF8E8378876F8381E08D8319821A82AB
:102FF0001B821C828E81803208F05BC08F81988595
:10300000009709F456C0A7E2B0E0E7E2F0E0808163
:10301000807E8C93A7E2B0E0E7E2F0E090818E81C1
:10302000892B8C93A6E2B0E0E6E2F0E08081806438
:103030008C930BC089819A81AB81BC810196A11DC3
:10304000B11D89839A83AB83BC83E6E2F0E0808183
:1030500082958F70882F90E081709070009761F456
:1030600089819A81AB81BC81803523EC920720E075
:10307000A20720E0B207F0F2E6E2F0E0808182955C
:103080008F70882F90E081709070882381F0A6E285
:10309000B0E0E6E2F0E0808180618C93E4E2F0E071
:1030A00080819181EF81F8859183808303C01D82A7
:1030B00001C01D828D8128960FB6F894DEBF0FBE29
:1030C000CDBFCF91DF910895DF93CF9300D000D093
:1030D000CDB7DEB78A837C836B8381E089838A8165
:1030E000803278F58B819C81009759F180917C002A
:1030F000882339F581E080937C008B819C819093BB
:103100007B0080937A00A6E2B0E0E6E2F0E0808106
:1031100088608C93A7E2B0E0E7E2F0E08081807EF7
:103120008C93A7E2B0E0E7E2F0E090818A81892BFE
:103130008C93A6E2B0E0E6E2F0E0808180648C93BC
:1031400001C0198289810F900F900F900F90CF913D
:10315000DF910895DF93CF9300D00F92CDB7DEB704
:103160009B838A8381E089838A819B81009739F0E0
:10317000E4E2F0E0808191819B838A8301C019821F
:1031800089810F900F900F90CF91DF9108951F923A
:103190000F920FB60F9211242F933F934F935F938B
:1031A0006F937F938F939F93AF93BF93EF93FF930F
:1031B000DF93CF93CDB7DEB780917A0090917B00FB
:1031C000009799F010927C00A6E2B0E0E6E2F0E011
:1031D0008081877F8C9320917A0030917B00E4E29C
:1031E000F0E080819181F9010995CF91DF91FF9104
:1031F000EF91BF91AF919F918F917F916F915F916F
:103200004F913F912F910F900FBE0F901F901895E7
:10321000DF93CF93CDB7DEB728970FB6F894DEBF14
:103220000FBECDBF80E064E040E00E94020982E072
:1032300061E00E941B0C83E061E00E941B0C0E9475
:103240006C140E94A81780E060E00E94081584E6D4
:1032500090E00E94321581E060E00E9408158BE644
:1032600090E00E9432159E01295F3F4F84E0B90132
:103270000E94E7178F819885CC01A0E0B0E028E894
:1032800033E140E050E0BC01CD010E949719DC0120
:10329000CB01072E7AE0B695A795979587957A95F5
:1032A000D1F7702D9E838D838F8198859C0140E09E
:1032B00050E080E090E4ACE9B0E0BC01CD010E94B8
:1032C000B619DA01C90180519742A040B040898304
:1032D0009A83AB83BC8380E065E00E9408158D81F2
:1032E0009E81CC01A0E0B0E0BC01CD010E94201283
:1032F00081E065E00E94081589819A81AB81BC81DB
:10330000BC01CD010E942012AECFDF93CF9300D03D
:10331000CDB7DEB79A83898389819A8190937E00A5
:1033200080937D000F900F90CF91DF910895629F61
:10333000D001739FF001829FE00DF11D649FE00DAD
:10334000F11D929FF00D839FF00D749FF00D659F0E
:10335000F00D9927729FB00DE11DF91F639FB00D0D
:10336000E11DF91FBD01CF0111240895A1E21A2E1C
:10337000AA1BBB1BFD010DC0AA1FBB1FEE1FFF1F19
:10338000A217B307E407F50720F0A21BB30BE40B69
:10339000F50B661F771F881F991F1A9469F76095B0
:1033A0007095809590959B01AC01BD01CF0108956A
:1033B0002F923F924F925F926F927F928F929F9245
:1033C000AF92BF92CF92DF92EF92FF920F931F9333
:1033D000CF93DF93CDB7DEB7CA1BDB0B0FB6F894E4
:1033E000DEBF0FBECDBF09942A88398848885F8424
:1033F0006E847D848C849B84AA84B984C884DF8095
:10340000EE80FD800C811B81AA81B981CE0FD11D78
:103410000FB6F894DEBF0FBECDBFED010895FC01DD
:1034200001900020E9F7809590958E0F9F1F0895D9
:10343000AEE0B0E0EEE1FAE10C94E6190D891E89E8
:1034400086E08C831A8309838FEF9FE79E838D83A9
:103450009E01275E3F4FCE0101966F89788DA901AD
:103460000E943C1A2F813885020F131FF801108229
:103470002E96E4E00C94021AABE0B0E0E2E4FAE14C
:103480000C94D8193C012B015A01FC0117821682B9
:10349000838181FD03C06FEF7FEFC6C19AE0892E63
:1034A0001E010894211C311CF3012381F20123FD2C
:1034B000859123FF81912F01882309F4B2C18532C0
:1034C00039F423FD859123FF81912F01853229F461
:1034D00090E0B3010E942F1CE7CF982FFF24EE2429
:1034E0009924FFE1FF15D0F09B3269F09C3228F45B
:1034F000903259F0933291F40EC09D3249F09033DE
:1035000069F441E024C052E0F52A84E0F82A28C09A
:1035100098E0F92A25C0E0E1FE2A22C0F7FC29C084
:10352000892F80538A3070F4F6FE05C0989C902C49
:103530001124980E15C0E89CE02C1124E80EF0E24E
:10354000FF2A0EC09E3229F4F6FC6BC140E4F42A37
:1035500007C09C3619F450E8F52A02C0983649F4A1
:10356000F20123FD959123FF91912F01992309F0F9
:10357000B8CF892F8554833018F08052833038F4C7
:1035800044E050E0A40EB51E5FE359830FC09336AC
:1035900031F0933779F0933509F056C020C0F5012A
:1035A0008081898342E050E0A40EB51E610101E0F4
:1035B00010E012C0F501C080D180F6FC03C06FEFAF
:1035C0007FEF02C0692D70E042E050E0A40EB51E0E
:1035D000C6010E94241C8C015FE7F52214C0F5018E
:1035E000C080D180F6FC03C06FEF7FEF02C0692D71
:1035F00070E042E050E0A40EB51EC6010E94191C06
:103600008C0150E8F52AF3FE07C01AC080E290E072
:10361000B3010E942F1CEA948E2D90E00817190721
:10362000A8F30EC0F601F7FC8591F7FE81916F01BA
:1036300090E0B3010E942F1CE110EA940150104069
:103640000115110579F7EAC0943611F0993669F53C
:10365000F7FE08C0F501208131814281538184E069
:1036600090E00AC0F501808191819C01442737FDDB
:103670004095542F82E090E0A80EB91E9FE6F922F3
:1036800057FF09C050954095309521953F4F4F4FBA
:103690005F4FE0E8FE2ACA01B901A1012AE030E04B
:1036A0000E945B1CD82ED21840C0953729F41F2DDC
:1036B0001F7E2AE030E01DC01F2D197F9F3661F06C
:1036C000903720F4983509F0ACC00FC0903739F02E
:1036D000983709F0A6C004C028E030E00AC01061A5
:1036E00014FD146020E130E004C014FD166020E1F8
:1036F00032E017FF08C0F5016081718182819381FA
:1037000044E050E008C0F50180819181BC0180E077
:1037100090E042E050E0A40EB51EA1010E945B1CA7
:10372000D82ED2188FE7F82EF122F6FE0BC05EEFEE
:10373000F522D91438F4F4FE07C0F2FC05C08FEE70
:10374000F82202C01D2D01C0192DF4FE0DC0FE018E
:10375000ED0DF11D8081803319F499EEF92208C036
:103760001F5FF2FE05C003C08F2D867809F01F5F32
:103770000F2DF3FC14C0F0FE0FC01E1510F09D2C91
:103780000BC09D2C9E0C911A1E2D06C080E290E06D
:10379000B3010E942F1C1F5F1E15C0F304C01E152D
:1037A00010F4E11A01C0EE2404FF0FC080E390E0A2
:1037B000B3010E942F1C02FF1DC001FD03C088E75A
:1037C00090E00EC088E590E00BC0802F867891F0E5
:1037D00001FF02C08BE201C080E2F7FC8DE290E0C5
:1037E000B3010E942F1C06C080E390E0B3010E9449
:1037F0002F1C9A94D914C0F3DA94F101ED0DF11D48
:10380000808190E0B3010E942F1CDD20A9F706C043
:1038100080E290E0B3010E942F1CEA94EE20C1F7F1
:1038200043CEF30166817781CB012B96E2E10C94C4
:10383000F419FC010590615070400110D8F7809593
:1038400090958E0F9F1F0895FC016150704001906C
:103850000110D8F7809590958E0F9F1F08950F93B4
:103860001F93CF93DF938C01EB018B8181FF1BC0F2
:1038700082FF0DC02E813F818C819D8128173907E1
:1038800064F4E881F9810193F983E88306C0E8854F
:10389000F985802F0995892B31F48E819F810196BE
:1038A0009F838E8302C00FEF1FEFC801DF91CF917E
:1038B0001F910F910895FA01AA27283051F1203164
:1038C00081F1E8946F936E7F6E5F7F4F8F4F9F4FB4
:1038D000AF4FB1E03ED0B4E03CD0670F781F891FF6
:1038E0009A1FA11D680F791F8A1F911DA11D6A0FC4
:1038F000711D811D911DA11D20D009F468943F9177
:103900002AE0269F11243019305D3193DEF6CF0175
:103910000895462F4770405D4193B3E00FD0C9F73B
:10392000F6CF462F4F70405D4A3318F0495D31FDA8
:103930004052419302D0A9F7EACFB4E0A6959795FB
:10394000879577956795BA95C9F7009761057105D1
:1039500008959B01AC010A2E06945795479537951B
:103960002795BA95C9F7620F731F841F951FA01D75
:063970000895F894FFCF5A
:10397600256C7500566F6C743A20005265733A20B8
:0A3986000000000000000000000037
:00000001FF
