:100000000C942A000C943F000C943F000C943F0089
:100010000C943F000C943F000C943F000C943F0064
:100020000C943F000C943F000C943F000C943F0054
:100030000C943F000C943F000C943F000C943F0044
:100040000C943F000C943F000C943F000C943F0034
:100050000C943F0011241FBECFE5D8E0DEBFCDBF1A
:1000600011E0A0E6B0E0EAE9F1E502C005900D92EA
:10007000A430B107D9F70E945B1A0C94CB280C94DA
:100080000000EF92FF920F931F937B018C0120E001
:1000900030E040E05FE40E94410388238CF0C80117
:1000A000B70120E030E040E05FE40E94B9010E9427
:1000B000A1039B01AC01205030404040504806C095
:1000C000C801B7010E94A1039B01AC01B901CA019B
:1000D0001F910F91FF90EF900895A0E0B0E0E3E74B
:1000E000F0E00C949428DC012B01FA019C919230F1
:1000F00008F439C1EB018881823008F433C19430AF
:1001000069F4843009F02FC111969C91119789816F
:10011000981709F428C1ABEFB0E025C1843009F489
:1001200021C18230A9F4923009F01DC19A01AD01BC
:1001300088E0EA010990AE01E90109929E0181502F
:10014000C1F7E201898111969C918923818308C1BD
:10015000923009F407C112962D903C901397EB0151
:100160008A819B811496AD90BD90CD90DC901797BD
:10017000EC80FD800E811F819101281B390BB90194
:1001800037FF04C066277727621B730B6032710547
:100190000CF061C0121613066CF537014801062EEB
:1001A00004C096948794779467940A94D2F721E0D8
:1001B00030E040E050E004C0220F331F441F551FC1
:1001C0006A95D2F721503040404050402E213F21C7
:1001D00040235123211531054105510521F021E02E
:1001E00030E040E050E079018A01E628F72808294C
:1001F00019293CC0232BD1F1260E371E35014601AB
:10020000062E04C096948794779467940A94D2F744
:1002100021E030E040E050E004C0220F331F441FD3
:10022000551F6A95D2F721503040404050402A2156
:100230003B214C215D21211531054105510521F05E
:1002400021E030E040E050E059016A01A628B728DB
:10025000C828D9280BC0821593052CF01C01AA24AC
:10026000BB24650103C0EE24FF24870111969C91F5
:10027000D20111968C91981709F445C0992339F051
:10028000A80197012A193B094C095D0906C0A6017E
:1002900095012E193F09400B510B57FD08C01182E3
:1002A0003382228224833583468357831DC081E0B5
:1002B00081833382228288279927DC01821B930B5A
:1002C000A40BB50B84839583A683B7830DC0220F3F
:1002D000331F441F551F24833583468357838281F0
:1002E000938101979383828324813581468157814D
:1002F000DA01C9010197A109B1098F5F9F4FAF4F83
:10030000BF4328F30BC0918333822282EA0CFB1C8B
:100310000C1D1D1DE482F5820683178383E0808314
:10032000248135814681578157FF1AC0C901AA2708
:1003300097FDA095BA2F81709070A070B0705695FF
:10034000479537952795822B932BA42BB52B848328
:100350009583A683B7838281938101969383828359
:10036000DF0101C0D201CD01CDB7DEB7E2E10C94CF
:10037000B028A0E2B0E0EFEBF1E00C94A028698394
:100380007A838B839C832D833E834F835887E9E058
:10039000EE2EF12CEC0EFD1ECE010196B7010E944F
:1003A000CA048E010F5E1F4FCE010596B8010E9450
:1003B000CA048A8991E089278A8BC701B801AE01F6
:1003C000475E5F4F0E946D000E94F503A096E6E035
:1003D0000C94BC28A0E2B0E0E0EFF1E00C94A0287F
:1003E00069837A838B839C832D833E834F835887D5
:1003F000F9E0EF2EF12CEC0EFD1ECE010196B701B7
:100400000E94CA048E010F5E1F4FCE010596B801EF
:100410000E94CA04C701B801AE01475E5F4F0E9447
:100420006D000E94F503A096E6E00C94BC28A0E2C3
:10043000B0E0EDE1F2E00C94942869837A838B8339
:100440009C832D833E834F835887CE010196BE0146
:10045000675F7F4F0E94CA04CE010596BE016F5EA2
:100460007F4F0E94CA049985923088F08989823032
:10047000C8F0943019F4823051F404C0843029F467
:10048000923081F48BEF90E0C6C0923049F420E0C6
:100490009A858A89981321E02A87CE010996BBC0E4
:1004A000823049F420E09A858A89981321E02A8BCA
:1004B000CE014196B0C02D843E844F8458886D880B
:1004C0007E888F88988CEE24FF248701AA24BB2481
:1004D000650140E050E060E070E0E0E0F0E0C10184
:1004E00081709070892BE9F0E60CF71C081D191D2E
:1004F0009A01AB012A0D3B1D4C1D5D1D80E090E073
:10050000A0E0B0E0E614F7040805190520F481E046
:1005100090E0A0E0B0E0BA01A901480F591F6A1F9E
:100520007B1FAA0CBB1CCC1CDD1C97FE08C081E005
:1005300090E0A0E0B0E0A82AB92ACA2ADB2A3196C6
:10054000E032F10549F0660C771C881C991C569422
:10055000479437942794C3CFFA85EA892B893C893D
:100560008B859C85280F391F2E5F3F4F17C0CA010E
:1005700081709070892B61F016950795F794E79438
:1005800080E090E0A0E0B0E8E82AF92A0A2B1B2BD3
:1005900076956795579547952F5F3F4F77FDE7CF46
:1005A0000CC0440F551F661F771F17FD4160EE0CEE
:1005B000FF1C001F111F21503040403090E05907B0
:1005C00090E0690790E4790760F32B8F3C8FDB01A3
:1005D000CA018F779070A070B07080349105A1052A
:1005E000B10561F447FD0AC0E114F10401051105EC
:1005F00029F0405C5F4F6F4F7F4F40781A8EFE1797
:1006000011F081E08A8F4D8F5E8F6F8F78A383E02A
:10061000898FCE0149960E94F503A096E2E10C94E1
:10062000B028A8E1B0E0E7E1F3E00C94A0286983EA
:100630007A838B839C832D833E834F83588789E005
:10064000E82EF12CEC0EFD1ECE010196B7010E94A2
:10065000CA048E010F5E1F4FCE010596B8010E949D
:10066000CA048985823040F08989823028F0C70128
:10067000B8010E94420501C08FEF6896E6E00C9435
:10068000BC28A8E1B0E0E7E4F3E00C94A02869837B
:100690007A838B839C832D833E834F83588789E0A5
:1006A000E82EF12CEC0EFD1ECE010196B7010E9442
:1006B000CA048E010F5E1F4FCE010596B8010E943D
:1006C000CA048985823040F08989823028F0C701C8
:1006D000B8010E94420501C08FEF6896E6E00C94D5
:1006E000BC28A8E1B0E0E7E7F3E00C94A028698318
:1006F0007A838B839C832D833E834F83588789E045
:10070000E82EF12CEC0EFD1ECE010196B7010E94E1
:10071000CA048E010F5E1F4FCE010596B8010E94DC
:10072000CA048985823040F08989823028F0C70167
:10073000B8010E94420501C081E06896E6E00C9491
:10074000BC28ACE0B0E0E7EAF3E00C94A4286983AD
:100750007A838B839C83CE010196BE016B5F7F4FB2
:100760000E94CA048D81823061F1823050F1843060
:1007700021F48E81882351F12EC02F81388537FDD9
:1007800020C06E812F3131051CF06623F9F023C0A3
:100790008EE190E0821B930B29853A854B855C8521
:1007A00004C056954795379527958A95D2F76623C5
:1007B000B1F050954095309521953F4F4F4F5F4F89
:1007C0000EC020E030E040E050E009C02FEF3FEFE6
:1007D0004FEF5FE704C020E030E040E050E8B901AF
:1007E000CA012C96E2E00C94C028DF92EF92FF92AF
:1007F0000F931F93FC01E480F58006811781D1805F
:100800008081823048F480E090E0A0E1B0E0E82A06
:10081000F92A0A2B1B2BA5C0843009F49FC0823013
:1008200021F4EE24FF24870105C0E114F104010541
:10083000110519F4E0E0F0E096C0628173819FEF4A
:10084000623879070CF05BC022E83FEF261B370BBC
:100850002A3131052CF020E030E040E050E02AC0A1
:10086000B801A701022E04C0769567955795479564
:100870000A94D2F781E090E0A0E0B0E004C0880FD5
:10088000991FAA1FBB1F2A95D2F70197A109B10989
:100890008E219F21A023B1230097A105B10521F04E
:1008A00081E090E0A0E0B0E09A01AB01282B392B69
:1008B0004A2B5B2BDA01C9018F779070A070B07062
:1008C00080349105A105B10539F427FF09C0205CEA
:1008D0003F4F4F4F5F4F04C0215C3F4F4F4F5F4F23
:1008E000E0E0F0E02030A0E03A07A0E04A07A0E412
:1008F0005A0710F0E1E0F0E079018A0127C0603882
:10090000710564F5FB01E158FF4FD801C7018F77EE
:100910009070A070B07080349105A105B10539F4D4
:10092000E7FE0DC080E490E0A0E0B0E004C08FE3FB
:1009300090E0A0E0B0E0E80EF91E0A1F1B1F17FFB1
:1009400005C016950795F794E794319687E01695BC
:100950000795F794E7948A95D1F705C0EE24FF2414
:100960008701EFEFF0E06E2F679566276795902F70
:100970009F77D794DD24D7948E2F8695492F462BC9
:10098000582F5D29B701CA011F910F91FF90EF9079
:10099000DF900895FC01DB01408151812281622FAB
:1009A0006F7770E0221F2227221F9381892F880FE3
:1009B000822B282F30E0991F9927991F11969C931D
:1009C000119721153105A9F54115510561057105ED
:1009D00011F482E037C082E89FEF13969C938E93C8
:1009E00012979A01AB0167E0220F331F441F551F76
:1009F0006A95D1F783E08C930DC0220F331F441FFB
:100A0000551F12968D919C911397019713969C9365
:100A10008E931297203080E0380780E0480780E40A
:100A2000580758F314962D933D934D935C93179765
:100A300008952F3F310579F4411551056105710580
:100A400019F484E08C93089564FF03C081E08C93D3
:100A500012C01C9210C02F57304013963C932E9317
:100A6000129783E08C9387E0440F551F661F771F12
:100A70008A95D1F7706414964D935D936D937C9332
:100A8000179708951F93DC01FB019C91923008F4A5
:100A900047C08081823008F443C0943051F41196ED
:100AA0001C91843099F58181682F70E0611B710978
:100AB0003FC0843021F0923031F48230B9F181812D
:100AC000882389F12DC011961C9111978230F1F085
:100AD00081811817D9F412962D913C911397828138
:100AE00093818217930794F028173907BCF0149666
:100AF0008D919D910D90BC91A02D248135814681D1
:100B00005781281739074A075B0718F4112341F06A
:100B10000AC082179307A407B50740F4112319F000
:100B200061E070E005C06FEF7FEF02C060E070E051
:100B3000CB011F910895DF93CF93CDB7DEB783E04C
:100B400060E041E00E94850683E061E041E00E94B0
:100B5000850683E062E041E00E94850683E063E071
:100B600041E00E948506CF91DF910895DF93CF93F6
:100B700000D000D0CDB7DEB789836A834B832C8346
:100B800083E060E049810E94AF0783E061E04A8131
:100B90000E94AF0783E062E04B810E94AF0783E0D1
:100BA00063E04C810E94AF070F900F900F900F9061
:100BB000CF91DF910895DF93CF9300D000D0CDB7D0
:100BC000DEB789836A834B832C8383E063E04C81A7
:100BD0000E94AF0783E062E04B810E94AF0783E091
:100BE00061E04A810E94AF0783E060E049810E9492
:100BF000AF070F900F900F900F90CF91DF91089556
:100C0000DF93CF93CDB7DEB729970FB6F894DEBF49
:100C10000FBECDBF9A8389836B8329813A8139873F
:100C20002887888599858A35910531F02885398509
:100C3000243B310521F13FC08B81282F30E03F83D9
:100C40002E838E819F81009731F02E813F8121304C
:100C5000310541F030C080E060E041E021E00E94D9
:100C6000B60529C080E060E040E020E00E94B605C3
:100C700081E061E040E020E00E94DB051CC08B8148
:100C8000282F30E03D832C838C819D81009731F0AB
:100C90002C813D812130310541F00DC080E061E0C3
:100CA00041E020E00E94DB0506C080E061E041E019
:100CB00020E00E94B60529960FB6F894DEBF0FBE5D
:100CC000CDBFCF91DF910895DF93CF93CDB7DEB73E
:100CD000EAE3F0E01082E7E3F0E01082E4E3F0E022
:100CE0008FEF8083E1E3F0E080E38083EBE3F0E0EB
:100CF0001082E8E3F0E01082E5E3F0E01082E2E346
:100D0000F0E01082CF91DF910895DF93CF93CDB7BC
:100D1000DEB72E970FB6F894DEBF0FBECDBF8A8325
:100D20006B834C8381E089838A81843008F00CC115
:100D30008B81883008F008C18C81813021F08C8152
:100D4000882309F001C18A81282F30E03E872D8752
:100D50008D859E858130910509F44FC02D853E8596
:100D6000223031052CF48D859E85009771F0EDC001
:100D70002D853E852230310509F477C08D859E850D
:100D80008330910509F4A9C0E0C08C81282F30E0A0
:100D90003C872B878B859C850097D1F02B853C85E4
:100DA0002130310509F0D1C0AAE3B0E0EAE3F0E078
:100DB0008081482F8B81282F30E081E090E0022E47
:100DC00002C0880F991F0A94E2F7842B8C93BDC050
:100DD000AAE3B0E0EAE3F0E08081482F8B81282F7E
:100DE00030E081E090E0022E02C0880F991F0A9443
:100DF000E2F7809584238C93A8C08C81282F30E063
:100E00003A87298789859A850097D1F029853A857F
:100E10002130310509F099C0A7E3B0E0E7E3F0E045
:100E20008081482F8B81282F30E081E090E0022ED6
:100E300002C0880F991F0A94E2F7842B8C9385C017
:100E4000A7E3B0E0E7E3F0E08081482F8B81282F13
:100E500030E081E090E0022E02C0880F991F0A94D2
:100E6000E2F7809584238C9370C08C81282F30E02A
:100E700038872F838F8198850097D1F02F8138850F
:100E80002130310509F061C0A4E3B0E0E4E3F0E013
:100E90008081482F8B81282F30E081E090E0022E66
:100EA00002C0880F991F0A94E2F7842B8C934DC0DF
:100EB000A4E3B0E0E4E3F0E08081482F8B81282FA9
:100EC00030E081E090E0022E02C0880F991F0A9462
:100ED000E2F7809584238C9338C08C81282F30E0F2
:100EE0003E832D838D819E810097C9F02D813E81A7
:100EF0002130310551F5A1E3B0E0E1E3F0E080817C
:100F0000482F8B81282F30E081E090E0022E02C034
:100F1000880F991F0A94E2F7842B8C9316C0A1E3E3
:100F2000B0E0E1E3F0E08081482F8B81282F30E0B2
:100F300081E090E0022E02C0880F991F0A94E2F728
:100F4000809584238C9301C0198289812E960FB6D7
:100F5000F894DEBF0FBECDBFCF91DF910895DF9330
:100F6000CF93CDB7DEB72F970FB6F894DEBF0FBE85
:100F7000CDBF8B836C834D8381E08A838B818430EA
:100F800008F013C18C81883008F00FC18D8188234F
:100F900021F08D81813009F008C18B81282F30E04C
:100FA0003F872E878E859F858130910509F450C03B
:100FB0002E853F85223031052CF48E859F85009744
:100FC00071F0F4C02E853F852230310509F479C0D7
:100FD0008E859F858330910509F4ADC0E7C08D8172
:100FE000282F30E03D872C878C859D850097C9F0A0
:100FF0002C853D852130310549F5ABE3B0E0EBE3CD
:10100000F0E08081482F8C81282F30E081E090E053
:10101000022E02C0880F991F0A94E2F7842B8C934A
:10102000C5C0ABE3B0E0EBE3F0E08081482F8C81FA
:10103000282F30E081E090E0022E02C0880F991F37
:101040000A94E2F7809584238C93B0C01A82AEC0D4
:101050008D81282F30E03B872A878A859B850097E2
:10106000C9F02A853B852130310549F5A8E3B0E078
:10107000E8E3F0E08081482F8C81282F30E081E088
:1010800090E0022E02C0880F991F0A94E2F7842B89
:101090008C938CC0A8E3B0E0E8E3F0E08081482FB7
:1010A0008C81282F30E081E090E0022E02C0880F72
:1010B000991F0A94E2F7809584238C9377C01A8253
:1010C00075C08D81282F30E03987288788859985DC
:1010D000009731F02885398521303105B1F029C0DC
:1010E000A5E3B0E0E5E3F0E08081482F8C81282F74
:1010F00030E081E090E0022E02C0880F991F0A9430
:10110000E2F7809584238C9351C0A5E3B0E0E5E33A
:10111000F0E08081482F8C81282F30E081E090E042
:10112000022E02C0880F991F0A94E2F7842B8C9339
:101130003DC01A823BC08D81282F30E03F832E8333
:101140008E819F81009731F02E813F8121303105C2
:10115000B1F029C0A5E3B0E0E5E3F0E08081482FDD
:101160008C81282F30E081E090E0022E02C0880FB1
:10117000991F0A94E2F7809584238C9317C0A2E309
:10118000B0E0E2E3F0E08081482F8C81282F30E04E
:1011900081E090E0022E02C0880F991F0A94E2F7C6
:1011A000842B8C9303C01A8201C019828A812F96E6
:1011B0000FB6F894DEBF0FBECDBFCF91DF9108957B
:1011C000DF93CF93CDB7DEB728970FB6F894DEBF85
:1011D0000FBECDBF8B836C835E834D8381E08A839A
:1011E0008B81843008F09FC08C81883008F09BC0D0
:1011F0008D819E81009709F496C08B81282F30E065
:1012000038872F834F81588541305105A9F18F814F
:1012100098858230910534F42F8138852115310568
:1012200071F082C04F8158854230510509F441C0A8
:101230008F8198858330910509F458C075C0E9E322
:10124000F0E08081282F30E08C81882F90E0A90188
:1012500002C0559547958A95E2F7CA018170898346
:101260008981882321F4ED81FE8110825DC0ED81AA
:10127000FE8181E0808358C0E6E3F0E08081282F82
:1012800030E08C81882F90E0A90102C055954795E8
:101290008A95E2F7CA01817089838981882321F4C4
:1012A000ED81FE81108240C0ED81FE8181E080836E
:1012B0003BC0E3E3F0E08081282F30E08C81882F71
:1012C00090E0A90102C0559547958A95E2F7CA01B9
:1012D000817089838981882321F4ED81FE811082C8
:1012E00023C0ED81FE8181E080831EC0E0E3F0E059
:1012F0008081282F30E08C81882F90E0A90102C0E6
:10130000559547958A95E2F7CA018170898389814D
:10131000882321F4ED81FE81108206C0ED81FE81DB
:1013200081E0808301C01A828A8128960FB6F894E2
:10133000DEBF0FBECDBFCF91DF910895DF93CF9376
:10134000CDB7DEB72D970FB6F894DEBF0FBECDBF79
:1013500089836A838981282F30E03C872B878B859E
:101360009C858130910571F12B853C8522303105BA
:101370002CF48B859C85009769F06BC02B853C8590
:1013800022303105B9F18B859C858330910509F4B4
:1013900049C05FC08A81282F30E03A872987898534
:1013A0009A85009731F029853A852130310529F059
:1013B00050C0EAE3F0E010824CC0EAE3F0E08FEFC7
:1013C000808347C08A81282F30E038872F838F8120
:1013D0009885009731F02F8138852130310529F02B
:1013E00038C0E7E3F0E0108234C0E7E3F0E08FEFCD
:1013F00080832FC08A81282F30E03E832D838D810A
:101400009E81009731F02D813E812130310529F0F8
:1014100020C0E4E3F0E010821CC0E4E3F0E08FEFD2
:10142000808317C08A81282F30E03C832B838B81F7
:101430009C81009731F02B813C812130310529F0CE
:1014400008C0E1E3F0E0108204C0E1E3F0E08FEFD8
:1014500080832D960FB6F894DEBF0FBECDBFCF911F
:10146000DF910895DF93CF93CDB7DEB72D970FB6F9
:10147000F894DEBF0FBECDBF8A836B8381E0898382
:101480008A81843008F080C08A81282F30E03D872F
:101490002C878C859D858130910571F12C853D854A
:1014A000223031052CF48C859D85009769F06DC044
:1014B0002C853D8522303105B9F18C859D858330A1
:1014C000910509F449C061C08B81282F30E03B872A
:1014D0002A878A859B85009731F02A853B852130B4
:1014E000310529F052C0EBE3F0E010824EC0EBE38F
:1014F000F0E08FEF808349C08B81282F30E039875F
:10150000288788859985009731F02885398521308D
:10151000310529F03AC0E8E3F0E0108236C0E8E394
:10152000F0E08FEF808331C08B81282F30E03F8344
:101530002E838E819F81009731F02E813F81213053
:10154000310529F022C0E5E3F0E010821EC0E5E39A
:10155000F0E08FEF808319C08B81282F30E03D832E
:101560002C838C819D81009731F02C813D8121302D
:10157000310529F00AC0E2E3F0E0108206C0E2E3A0
:10158000F0E08FEF808301C0198289812D960FB61C
:10159000F894DEBF0FBECDBFCF91DF910895DF93EA
:1015A000CF9300D000D000D0CDB7DEB78A837C8344
:1015B0006B8381E089838A81843008F03FC08B810E
:1015C0009C810097D9F18A81282F30E03E832D83BA
:1015D0008D819E8181309105E1F02D813E81223007
:1015E00031052CF48D819E81009761F028C02D81FA
:1015F0003E8122303105A1F08D819E81833091059D
:10160000B1F01DC0E9E3F0E08081EB81FC818083D3
:1016100016C0E6E3F0E08081EB81FC8180830FC09F
:10162000E3E3F0E08081EB81FC81808308C0E0E3AC
:10163000F0E08081EB81FC81808301C01982898187
:1016400026960FB6F894DEBF0FBECDBFCF91DF91C7
:1016500008958F92AF92CF92EF920F93DF93CF9333
:10166000CDB7DEB72C970FB6F894DEBF0FBECDBF57
:1016700089836A834B832C830D83EE82CF82A88675
:1016800089868981282F30E03B872A878A859B8538
:101690008130910509F4A8C02A853B8522303105A7
:1016A0002CF48A859B85009771F050C22A853B8572
:1016B0002230310509F429C18A859B858330910543
:1016C00009F4B4C143C28A81813041F4ABE3B0E094
:1016D000EBE3F0E0808181608C9307C0ABE3B0E086
:1016E000EBE3F0E080818E7F8C938B81813041F43D
:1016F000ABE3B0E0EBE3F0E0808182608C9307C065
:10170000ABE3B0E0EBE3F0E080818D7F8C938C81E4
:10171000813041F4ABE3B0E0EBE3F0E08081846042
:101720008C9307C0ABE3B0E0EBE3F0E080818B7F0C
:101730008C938D81813041F4ABE3B0E0EBE3F0E0DA
:10174000808188608C9307C0ABE3B0E0EBE3F0E00E
:101750008081877F8C938E81813041F4ABE3B0E050
:10176000EBE3F0E0808180618C9307C0ABE3B0E0F5
:10177000EBE3F0E080818F7E8C938F81813041F4A8
:10178000ABE3B0E0EBE3F0E0808180628C9307C0D4
:10179000ABE3B0E0EBE3F0E080818F7D8C93888554
:1017A000813041F4ABE3B0E0EBE3F0E080818064B2
:1017B0008C9307C0ABE3B0E0EBE3F0E080818F7B7C
:1017C0008C938985813041F4ABE3B0E0EBE3F0E04A
:1017D000808180688C93BAC1ABE3B0E0EBE3F0E0CA
:1017E00080818F778C93B2C18A81813041F4A8E3E4
:1017F000B0E0E8E3F0E0808181608C9307C0A8E36B
:10180000B0E0E8E3F0E080818E7F8C938B818130C3
:1018100041F4A8E3B0E0E8E3F0E0808182608C93DB
:1018200007C0A8E3B0E0E8E3F0E080818D7F8C930F
:101830008C81813041F4A8E3B0E0E8E3F0E08081FE
:1018400084608C9307C0A8E3B0E0E8E3F0E0808117
:101850008B7F8C938D81813041F4A8E3B0E0E8E385
:10186000F0E0808188608C9307C0A8E3B0E0E8E3F3
:10187000F0E08081877F8C938E81813041F4A8E3F2
:10188000B0E0E8E3F0E0808180618C9307C0A8E3DA
:10189000B0E0E8E3F0E080818F7E8C938F8181302F
:1018A00041F4A8E3B0E0E8E3F0E0808180628C934B
:1018B00007C0A8E3B0E0E8E3F0E080818F7D8C937F
:1018C0008885813041F4A8E3B0E0E8E3F0E080816E
:1018D00080648C9307C0A8E3B0E0E8E3F0E0808187
:1018E0008F7B8C938985813041F4A8E3B0E0E8E3F5
:1018F000F0E0808180688C9329C1A8E3B0E0E8E340
:10190000F0E080818F778C9321C18A81813041F40E
:10191000A5E3B0E0E5E3F0E0808181608C9307C04F
:10192000A5E3B0E0E5E3F0E080818E7F8C938B81CE
:10193000813041F4A5E3B0E0E5E3F0E0808182602E
:101940008C9307C0A5E3B0E0E5E3F0E080818D7FF4
:101950008C938C81813041F4A5E3B0E0E5E3F0E0C5
:10196000808184608C9307C0A5E3B0E0E5E3F0E0FC
:1019700080818B7F8C938D81813041F4A5E3B0E031
:10198000E5E3F0E0808188608C9307C0A5E3B0E0D8
:10199000E5E3F0E08081877F8C938E81813041F494
:1019A000A5E3B0E0E5E3F0E0808180618C9307C0BF
:1019B000A5E3B0E0E5E3F0E080818F7E8C938F813A
:1019C000813041F4A5E3B0E0E5E3F0E0808180629E
:1019D0008C9307C0A5E3B0E0E5E3F0E080818F7D64
:1019E0008C938885813041F4A5E3B0E0E5E3F0E035
:1019F000808180648C9307C0A5E3B0E0E5E3F0E06C
:101A000080818F7B8C938985813041F4A5E3B0E0A0
:101A1000E5E3F0E0808180688C9398C0A5E3B0E0B6
:101A2000E5E3F0E080818F778C9390C08A818130EC
:101A300041F4A2E3B0E0E2E3F0E0808181608C93C6
:101A400007C0A2E3B0E0E2E3F0E080818E7F8C93F8
:101A50008B81813041F4A2E3B0E0E2E3F0E08081E9
:101A600082608C9307C0A2E3B0E0E2E3F0E0808103
:101A70008D7F8C938C81813041F4A2E3B0E0E2E36E
:101A8000F0E0808184608C9307C0A2E3B0E0E2E3E1
:101A9000F0E080818B7F8C938D81813041F4A2E3D3
:101AA000B0E0E2E3F0E0808188608C9307C0A2E3BD
:101AB000B0E0E2E3F0E08081877F8C938E8181301B
:101AC00041F4A2E3B0E0E2E3F0E0808180618C9336
:101AD00007C0A2E3B0E0E2E3F0E080818F7E8C9368
:101AE0008F81813041F4A2E3B0E0E2E3F0E0808155
:101AF00080628C9307C0A2E3B0E0E2E3F0E0808173
:101B00008F7D8C938885813041F4A2E3B0E0E2E3DD
:101B1000F0E0808180648C9307C0A2E3B0E0E2E350
:101B2000F0E080818F7B8C938985813041F4A2E342
:101B3000B0E0E2E3F0E0808180688C9307C0A2E32C
:101B4000B0E0E2E3F0E080818F778C932C960FB6C3
:101B5000F894DEBF0FBECDBFCF91DF910F91EF9014
:101B6000CF90AF908F900895DF93CF9300D00F92D6
:101B7000CDB7DEB78A836B8381E089838A81813028
:101B800081F481E063E041E00E94850681E065E048
:101B900041E00E94850681E064E041E00E94850604
:101BA00014C08B81813081F481E062E041E00E94C9
:101BB000850681E061E041E00E94850681E060E009
:101BC00041E00E94850601C0198289810F900F9023
:101BD0000F90CF91DF910895DF93CF93CDB7DEB70C
:101BE00029970FB6F894DEBF0FBECDBF8A836B83F3
:101BF00081E089838A81282F30E03987288788858A
:101C00009985009731F0288539852130310589F192
:101C100060C08B81282F30E03F832E838E819F818F
:101C20000097A9F02E813F812130310501F581E037
:101C300063E041E00E94AF0781E065E041E00E947F
:101C4000AF0781E064E040E00E94AF0743C081E05D
:101C500063E041E00E94AF0781E065E040E00E9460
:101C6000AF0781E064E041E00E94AF0733C0198212
:101C700031C08B81282F30E03D832C838C819D8166
:101C80000097A9F02C813D812130310501F581E0DB
:101C900062E041E00E94AF0781E061E041E00E9424
:101CA000AF0781E060E040E00E94AF0713C081E031
:101CB00062E041E00E94AF0781E061E040E00E9405
:101CC000AF0781E060E041E00E94AF0703C01982E6
:101CD00001C01982898129960FB6F894DEBF0FBE24
:101CE000CDBFCF91DF910895DF93CF9300D0CDB7D3
:101CF000DEB78A8381E089838A81882331F481E099
:101D000063E040E00E94AF070AC08A81813031F46D
:101D100081E062E040E00E94AF0701C01982898142
:101D20000F900F90CF91DF910895DF93CF9300D064
:101D300000D00F92CDB7DEB789836A834B838A8147
:101D4000883008F0D5C08981843008F0D1C08981FD
:101D5000282F30E03D832C838C819D81813091053B
:101D600009F443C02C813D81223031052CF48C8153
:101D70009D81009771F0BCC02C813D8122303105DE
:101D800009F45FC08C819D818330910509F485C081
:101D9000AFC08B818130A1F4AAE3B0E0EAE3F0E0C8
:101DA0008081482F8A81282F30E081E090E0022E48
:101DB00002C0880F991F0A94E2F7842B8C9398C075
:101DC000AAE3B0E0EAE3F0E08081482F8A81282F7F
:101DD00030E081E090E0022E02C0880F991F0A9443
:101DE000E2F7809584238C9383C08B818130A1F4AA
:101DF000A7E3B0E0E7E3F0E08081482F8A81282F55
:101E000030E081E090E0022E02C0880F991F0A9412
:101E1000E2F7842B8C936CC0A7E3B0E0E7E3F0E03B
:101E20008081482F8A81282F30E081E090E0022EC7
:101E300002C0880F991F0A94E2F7809584238C933F
:101E400057C08B818130A1F4A4E3B0E0E4E3F0E07B
:101E50008081482F8A81282F30E081E090E0022E97
:101E600002C0880F991F0A94E2F7842B8C9340C01C
:101E7000A4E3B0E0E4E3F0E08081482F8A81282FDA
:101E800030E081E090E0022E02C0880F991F0A9492
:101E9000E2F7809584238C932BC08B818130A1F451
:101EA000A1E3B0E0E1E3F0E08081482F8A81282FB0
:101EB00030E081E090E0022E02C0880F991F0A9462
:101EC000E2F7842B8C9314C0A1E3B0E0E1E3F0E0EF
:101ED0008081482F8A81282F30E081E090E0022E17
:101EE00002C0880F991F0A94E2F7809584238C938F
:101EF0000F900F900F900F900F90CF91DF9108955A
:101F0000DF93CF9300D000D00F92CDB7DEB7898397
:101F10006A834B838A81883008F0D5C089818430F8
:101F200008F0D1C08981282F30E03D832C838C813B
:101F30009D818130910509F443C02C813D8122307F
:101F400031052CF48C819D81009771F0BCC02C81EF
:101F50003D812230310509F45FC08C819D81833041
:101F6000910509F485C0AFC08B818130A1F4ABE34A
:101F7000B0E0EBE3F0E08081482F8A81282F30E049
:101F800081E090E0022E02C0880F991F0A94E2F7C8
:101F9000842B8C9398C0ABE3B0E0EBE3F0E080815E
:101FA000482F8A81282F30E081E090E0022E02C085
:101FB000880F991F0A94E2F7809584238C9383C03D
:101FC0008B818130A1F4A8E3B0E0E8E3F0E0808108
:101FD000482F8A81282F30E081E090E0022E02C055
:101FE000880F991F0A94E2F7842B8C936CC0A8E3A6
:101FF000B0E0E8E3F0E08081482F8A81282F30E0CC
:1020000081E090E0022E02C0880F991F0A94E2F747
:10201000809584238C9357C08B818130A1F4A5E3F4
:10202000B0E0E5E3F0E08081482F8A81282F30E09E
:1020300081E090E0022E02C0880F991F0A94E2F717
:10204000842B8C9340C0A5E3B0E0E5E3F0E0808111
:10205000482F8A81282F30E081E090E0022E02C0D4
:10206000880F991F0A94E2F7809584238C932BC0E4
:102070008B818130A1F4A2E3B0E0E2E3F0E0808163
:10208000482F8A81282F30E081E090E0022E02C0A4
:10209000880F991F0A94E2F7842B8C9314C0A2E353
:1020A000B0E0E2E3F0E08081482F8A81282F30E021
:1020B00081E090E0022E02C0880F991F0A94E2F797
:1020C000809584238C930F900F900F900F900F901A
:1020D000CF91DF910895DF93CF9300D000D00F927E
:1020E000CDB7DEB78A836B8319828B81883008F085
:1020F00084C08A81843008F080C08A81282F30E033
:102100003D832C834C815D814130510579F18C8177
:102110009D818230910534F42C813D81211531055A
:1021200069F06BC04C815D8142305105B9F18C8101
:102130009D818330910509F449C05FC0E9E3F0E077
:102140008081282F30E08B81882F90E0A90102C088
:10215000559547958A95E2F7CA018170907088235A
:1021600019F081E0898349C0198247C0E6E3F0E0B5
:102170008081282F30E08B81882F90E0A90102C058
:10218000559547958A95E2F7CA018170907088232A
:1021900019F081E0898331C019822FC0E3E3F0E0B8
:1021A0008081282F30E08B81882F90E0A90102C028
:1021B000559547958A95E2F7CA01817090708823FA
:1021C00019F081E0898319C0198217C0E0E3F0E0BB
:1021D0008081282F30E08B81882F90E0A90102C0F8
:1021E000559547958A95E2F7CA01817090708823CA
:1021F00019F081E0898301C0198289810F900F90C5
:102200000F900F900F90CF91DF910895DF93CF93B0
:1022100000D000D0CDB7DEB789836A83898184304E
:1022200090F58981282F30E03C832B838B819C8122
:1022300081309105D1F02B813C81223031052CF485
:102240008B819C81009761F01EC02B813C812230E4
:10225000310581F08B819C818330910581F013C021
:10226000EAE3F0E08A8180830EC0E7E3F0E08A8150
:10227000808309C0E4E3F0E08A81808304C0E1E365
:10228000F0E08A8180830F900F900F900F90CF9194
:10229000DF910895DF93CF9300D000D0CDB7DEB7A4
:1022A00089836A838981843090F58981282F30E081
:1022B0003C832B838B819C8181309105D1F02B81D4
:1022C0003C81223031052CF48B819C81009761F098
:1022D0001EC02B813C812230310581F08B819C8195
:1022E0008330910581F013C0EBE3F0E08A818083B5
:1022F0000EC0E8E3F0E08A81808309C0E5E3F0E006
:102300008A81808304C0E2E3F0E08A8180830F90B9
:102310000F900F900F90CF91DF910895DF93CF939F
:1023200000D000D0CDB7DEB78A8319828A8184308D
:1023300090F58A81282F30E03C832B838B819C8110
:1023400081309105D1F02B813C81223031052CF474
:102350008B819C81009761F01EC02B813C812230D3
:10236000310581F08B819C818330910581F013C010
:10237000E9E3F0E0808189830EC0E6E3F0E080814C
:10238000898309C0E3E3F0E08081898304C0E0E34E
:10239000F0E08081898389810F900F900F900F90DA
:1023A000CF91DF910895DF93CF9300D0CDB7DEB703
:1023B0001A824DC0EAE3F0E08A81282F30E080E104
:1023C00090E002C0880F991F2A95E2F78083EBE323
:1023D000F0E08A81282F30E080E190E0022E02C0F8
:1023E000880F991F0A94E2F780958083198229C08B
:1023F000E9E3F0E08081282F30E08981882F90E0A8
:10240000A90102C0559547958A95E2F7CA018170E6
:102410009070009799F48981282F30E0C901880FC6
:10242000991F820F931F982F8A81890F8F5F0E94B7
:102430002C120F900F90CF91DF91089589818F5FBB
:10244000898389818430A0F28A818F5F8A838A811F
:10245000833008F4AFCFACCFDF93CF9300D000D060
:10246000CDB7DEB789838981282F30E03C832B8369
:102470008B819C818A30910581F02B813C812A30AF
:1024800031059CF08B819C818B30910549F02B812B
:102490003C812C30310531F008C03AE23A8307C064
:1024A0001A8205C083E28A8302C099819A838A8155
:1024B0000F900F900F900F90CF91DF910895DF93C1
:1024C000CF93CDB7DEB7E9970FB6F894DEBF0FBE56
:1024D000CDBF89AF83E064E040E00E94800F80E0E0
:1024E00090E0A0E8BFE38DAB9EABAFABB8AF6DA9FA
:1024F0007EA98FA998AD20E030E04AE755E40E941C
:102500001702DC01CB0189AB9AABABABBCAB69A9C1
:102510007AA98BA99CA920E030E040E85FE30E9403
:10252000710388232CF481E090E098AB8FA73FC023
:1025300069A97AA98BA99CA920E03FEF4FE757E44E
:102540000E94110318164CF56DA97EA98FA998ADAC
:1025500020E030E040E251E40E941702DC01CB01B0
:10256000BC01CD010E944100DC01CB0198AB8FA7DB
:102570000FC080E991E09EA78DA78DA59EA501972C
:10258000F1F79EA78DA78FA598A9019798AB8FA764
:102590008FA598A9009769F714C069A97AA98BA992
:1025A0009CA90E944100DC01CB0198AB8FA78FA5AD
:1025B00098A99CA78BA78BA59CA50197F1F79CA731
:1025C0008BA783E065E041E00E94800F80E090E00F
:1025D000A0E8BFE38FA398A7A9A7BAA76FA178A582
:1025E00089A59AA520E030E04AE755E40E94170249
:1025F000DC01CB018BA39CA3ADA3BEA36BA17CA1EB
:102600008DA19EA120E030E040E85FE30E947103CD
:1026100088232CF481E090E09AA389A33FC06BA1AA
:102620007CA18DA19EA120E03FEF4FE757E40E94DF
:10263000110318164CF56FA178A589A59AA520E07D
:1026400030E040E251E40E941702DC01CB01BC0102
:10265000CD010E944100DC01CB019AA389A30FC0E8
:1026600080E991E098A38F8F8F8D98A10197F1F762
:1026700098A38F8F89A19AA101979AA389A389A171
:102680009AA1009769F714C06BA17CA18DA19EA1AE
:102690000E944100DC01CB019AA389A389A19AA1E0
:1026A0009E8F8D8F8D8D9E8D0197F1F79E8F8D8FD3
:1026B00082E069AD0E944A1180E090E0A0E8BFE3AB
:1026C000898F9A8FAB8FBC8F698D7A8D8B8D9C8D06
:1026D00020E030E04AE755E40E941702DC01CB011C
:1026E0008D8B9E8BAF8BB88F6D897E898F89988DEE
:1026F00020E030E040E85FE30E94710388232CF47F
:1027000081E090E09C8B8B8B3FC06D897E898F89A7
:10271000988D20E03FEF4FE757E40E941103181611
:102720004CF5698D7A8D8B8D9C8D20E030E040E2F8
:1027300051E40E941702DC01CB01BC01CD010E94D3
:102740004100DC01CB019C8B8B8B0FC080E991E0B9
:102750009A8B898B89899A890197F1F79A8B898B52
:102760008B899C8901979C8B8B8B8B899C8900978B
:1027700069F714C06D897E898F89988D0E94410008
:10278000DC01CB019C8B8B8B8B899C89988B8F87F1
:102790008F8598890197F1F7988B8F8783E065E0A3
:1027A00040E00E94800F80E090E0A0E8BFE38B87CC
:1027B0009C87AD87BE876B857C858D859E8520E057
:1027C00030E04AE755E40E941702DC01CB018F8319
:1027D0009887A987BA876F81788589859A8520E04F
:1027E00030E040E85FE30E94710388232CF481E02D
:1027F00090E09E838D833FC06F81788589859A851F
:1028000020E03FEF4FE757E40E94110318164CF504
:102810006B857C858D859E8520E030E040E251E42B
:102820000E941702DC01CB01BC01CD010E944100D6
:10283000DC01CB019E838D830FC080E991E09C83F6
:102840008B838B819C810197F1F79C838B838D8196
:102850009E8101979E838D838D819E81009769F76C
:1028600014C06F81788589859A850E944100DC01BA
:10287000CB019E838D838D819E819A8389838981FB
:102880009A810197F1F79A838983E9960FB6F894B4
:10289000DEBF0FBECDBFCF91DF910895DF93CF9301
:1028A000CDB7DEB7E9970FB6F894DEBF0FBECDBF48
:1028B00089AF83E064E041E00E94800F80E090E017
:1028C000A0E8BFE38DAB9EABAFABB8AF6DA97EA95F
:1028D0008FA998AD20E030E04AE755E40E94170246
:1028E000DC01CB0189AB9AABABABBCAB69A97AA9D4
:1028F0008BA99CA920E030E040E85FE30E947103CF
:1029000088232CF481E090E098AB8FA73FC069A9A1
:102910007AA98BA99CA920E03FEF4FE757E40E94DA
:10292000110318164CF56DA97EA98FA998AD20E06A
:1029300030E040E251E40E941702DC01CB01BC010F
:10294000CD010E944100DC01CB0198AB8FA70FC0E5
:1029500080E991E09EA78DA78DA59EA50197F1F72F
:102960009EA78DA78FA598A9019798AB8FA78FA534
:1029700098A9009769F714C069A97AA98BA99CA99D
:102980000E944100DC01CB0198AB8FA78FA598A9CD
:102990009CA78BA78BA59CA50197F1F79CA78BA75C
:1029A00083E065E041E00E94800F80E090E0A0E8D5
:1029B000BFE38FA398A7A9A7BAA76FA178A589A5F8
:1029C0009AA520E030E04AE755E40E941702DC01B6
:1029D000CB018BA39CA3ADA3BEA36BA17CA18DA1B6
:1029E0009EA120E030E040E85FE30E94710388236D
:1029F0002CF481E090E09AA389A33FC06BA17CA155
:102A00008DA19EA120E03FEF4FE757E40E94110304
:102A100018164CF56FA178A589A59AA520E030E09D
:102A200040E251E40E941702DC01CB01BC01CD0160
:102A30000E944100DC01CB019AA389A30FC080E969
:102A400091E098A38F8F8F8D98A10197F1F798A3AC
:102A50008F8F89A19AA101979AA389A389A19AA18D
:102A6000009769F714C06BA17CA18DA19EA10E9463
:102A70004100DC01CB019AA389A389A19AA19E8F71
:102A80008D8F8D8D9E8D0197F1F79E8F8D8F82E0BA
:102A900069AD0E944A1180E090E0A0E8BFE3898F11
:102AA0009A8FAB8FBC8F698D7A8D8B8D9C8D20E03A
:102AB00030E04AE755E40E941702DC01CB018D8B20
:102AC0009E8BAF8BB88F6D897E898F89988D20E022
:102AD00030E040E85FE30E94710388232CF481E03A
:102AE00090E09C8B8B8B3FC06D897E898F89988D00
:102AF00020E03FEF4FE757E40E94110318164CF512
:102B0000698D7A8D8B8D9C8D20E030E040E251E420
:102B10000E941702DC01CB01BC01CD010E944100E3
:102B2000DC01CB019C8B8B8B0FC080E991E09A8BF1
:102B3000898B89899A890197F1F79A8B898B8B897F
:102B40009C8901979C8B8B8B8B899C89009769F75B
:102B500014C06D897E898F89988D0E944100DC01A7
:102B6000CB019C8B8B8B8B899C89988B8F878F85D6
:102B700098890197F1F7988B8F8783E065E040E0B3
:102B80000E94800F80E090E0A0E8BFE38B879C87E5
:102B9000AD87BE876B857C858D859E8520E030E086
:102BA0004AE755E40E941702DC01CB018F83988726
:102BB000A987BA876F81788589859A8520E030E07A
:102BC00040E85FE30E94710388232CF481E090E0E9
:102BD0009E838D833FC06F81788589859A8520E0AB
:102BE0003FEF4FE757E40E94110318164CF56B8531
:102BF0007C858D859E8520E030E040E251E40E9496
:102C00001702DC01CB01BC01CD010E944100DC01B7
:102C1000CB019E838D830FC080E991E09C838B83E1
:102C20008B819C810197F1F79C838B838D819E81A1
:102C300001979E838D838D819E81009769F714C0D3
:102C40006F81788589859A850E944100DC01CB01DE
:102C50009E838D838D819E819A83898389819A81C8
:102C60000197F1F79A838983E9960FB6F894DEBF4E
:102C70000FBECDBFCF91DF910895DF93CF93CDB736
:102C8000DEB72E970FB6F894DEBF0FBECDBF83E040
:102C900064E041E00E94950E83E065E041E00E941F
:102CA000950E82E061E00E94061180E090E0A0EACB
:102CB000B1E48B879C87AD87BE876B857C858D85CE
:102CC0009E8520E030E04AE755E40E941702DC01CF
:102CD000CB018F839887A987BA876F81788589858B
:102CE0009A8520E030E040E85FE30E94710388238A
:102CF0002CF481E090E09E838D833FC06F817885C6
:102D000089859A8520E03FEF4FE757E40E94110341
:102D100018164CF56B857C858D859E8520E030E00E
:102D200040E251E40E941702DC01CB01BC01CD015D
:102D30000E944100DC01CB019E838D830FC080E99E
:102D400091E09C838B838B819C810197F1F79C831D
:102D50008B838D819E8101979E838D838D819E8142
:102D6000009769F714C06F81788589859A850E94DC
:102D70004100DC01CB019E838D838D819E819A83EE
:102D8000898389819A810197F1F79A83898388E3FE
:102D90000E945F128CE00E945F1281E00E945F122D
:102DA0002E960FB6F894DEBF0FBECDBFCF91DF9148
:102DB0000895DF93CF9300D000D0CDB7DEB78983DD
:102DC0006A8389818832C0F48981282F30E03C836E
:102DD0002B838B819C81009731F02B813C812130AA
:102DE000310531F009C08A8180580E945F1204C009
:102DF0008A8180540E945F120F900F900F900F9065
:102E0000CF91DF910895DF93CF9300D00F92CDB78C
:102E1000DEB79B838A8319820EC08981282F30E018
:102E20008A819B81FC01E20FF31F80810E944E1476
:102E300089818F5F89838981282F30E08A819B81F6
:102E4000FC01E20FF31F8081882339F70F900F9068
:102E50000F90CF91DF910895DF93CF93CDB7DEB779
:102E600028970FB6F894DEBF0FBECDBF8B836C835F
:102E70005E834D8338872F831A8281E089838B811B
:102E8000882349F48C81803130F48C818F70806884
:102E90000E945F123AC08B818130B9F58C818031FC
:102EA000A0F58C818F70806C0E945F122EC08A8189
:102EB000282F30E08D819E81FC01E20FF31F80817D
:102EC0000E944E148A818F5F8A838B81882371F4DC
:102ED0008C81833058F08A818B3041F481E060E04E
:102EE0000E94D91689818F5F89830BC08B818130C5
:102EF00041F48C81833028F08A818B3011F40E9458
:102F00009917EF81F885898180838A81282F30E0A5
:102F10008D819E81FC01E20FF31F8081882339F6A9
:102F200028960FB6F894DEBF0FBECDBFCF91DF91CC
:102F30000895DF93CF93CDB7DEB72E970FB6F894F1
:102F4000DEBF0FBECDBF81E00E945F1280E090E047
:102F5000A0E0B0E48B879C87AD87BE876B857C85BE
:102F60008D859E8520E030E04AE755E40E941702F7
:102F7000DC01CB018F839887A987BA876F81788519
:102F800089859A8520E030E040E85FE30E94710384
:102F900088232CF481E090E09E838D833FC06F8175
:102FA000788589859A8520E03FEF4FE757E40E94B6
:102FB000110318164CF56B857C858D859E8520E068
:102FC00030E040E251E40E941702DC01CB01BC0179
:102FD000CD010E944100DC01CB019E838D830FC097
:102FE00080E991E09C838B838B819C810197F1F731
:102FF0009C838B838D819E8101979E838D838D81A0
:103000009E81009769F714C06F81788589859A85BC
:103010000E944100DC01CB019E838D838D819E81C6
:103020009A83898389819A810197F1F79A838983A9
:103030002E960FB6F894DEBF0FBECDBFCF91DF91B5
:103040000895DF93CF93CDB7DEB72E970FB6F894E0
:10305000DEBF0FBECDBF88E10E945F1280E090E02E
:10306000A0EAB1E48B879C87AD87BE876B857C85A2
:103070008D859E8520E030E04AE755E40E941702E6
:10308000DC01CB018F839887A987BA876F81788508
:1030900089859A8520E030E040E85FE30E94710373
:1030A00088232CF481E090E09E838D833FC06F8164
:1030B000788589859A8520E03FEF4FE757E40E94A5
:1030C000110318164CF56B857C858D859E8520E057
:1030D00030E040E251E40E941702DC01CB01BC0168
:1030E000CD010E944100DC01CB019E838D830FC086
:1030F00080E991E09C838B838B819C810197F1F720
:103100009C838B838D819E8101979E838D838D818E
:103110009E81009769F714C06F81788589859A85AB
:103120000E944100DC01CB019E838D838D819E81B5
:103130009A83898389819A810197F1F79A83898398
:103140002E960FB6F894DEBF0FBECDBFCF91DF91A4
:103150000895DF93CF93CDB7DEB72E970FB6F894CF
:10316000DEBF0FBECDBF8CE10E945F1280E090E019
:10317000A0EAB1E48B879C87AD87BE876B857C8591
:103180008D859E8520E030E04AE755E40E941702D5
:10319000DC01CB018F839887A987BA876F817885F7
:1031A00089859A8520E030E040E85FE30E94710362
:1031B00088232CF481E090E09E838D833FC06F8153
:1031C000788589859A8520E03FEF4FE757E40E9494
:1031D000110318164CF56B857C858D859E8520E046
:1031E00030E040E251E40E941702DC01CB01BC0157
:1031F000CD010E944100DC01CB019E838D830FC075
:1032000080E991E09C838B838B819C810197F1F70E
:103210009C838B838D819E8101979E838D838D817D
:103220009E81009769F714C06F81788589859A859A
:103230000E944100DC01CB019E838D838D819E81A4
:103240009A83898389819A810197F1F79A83898387
:103250002E960FB6F894DEBF0FBECDBFCF91DF9193
:1032600008950F93DF93CF93CDB7DEB728970FB6AE
:10327000F894DEBF0FBECDBF8B837D836C834E83FE
:103280002F83088788850E945F121A8219820FC0D7
:1032900029813A818C819D81FC01E20FF31F80819D
:1032A0000E944E1489819A8101969A83898389812B
:1032B0009A818830910564F38E816F810E94D916BE
:1032C0008B810E944E148F81803148F00E949917A3
:1032D00080E060E00E94D9168B810E944E142896EF
:1032E0000FB6F894DEBF0FBECDBFCF91DF910F9127
:1032F0000895DF93CF93CDB7DEB72E970FB6F8942E
:10330000DEBF0FBECDBF80E090E0ACE0B2E48B87C3
:103310009C87AD87BE876B857C858D859E8520E0EB
:1033200030E04AE755E40E941702DC01CB018F83AD
:103330009887A987BA876F81788589859A8520E0E3
:1033400030E040E85FE30E94710388232CF481E0C1
:1033500090E09E838D833FC06F81788589859A85B3
:1033600020E03FEF4FE757E40E94110318164CF599
:103370006B857C858D859E8520E030E040E251E4C0
:103380000E941702DC01CB01BC01CD010E9441006B
:10339000DC01CB019E838D830FC080E991E09C838B
:1033A0008B838B819C810197F1F79C838B838D812B
:1033B0009E8101979E838D838D819E81009769F701
:1033C00014C06F81788589859A850E944100DC014F
:1033D000CB019E838D838D819E819A838983898190
:1033E0009A810197F1F79A8389830E94991780E661
:1033F00090E00E94031781E060E00E94D9168BE6FE
:1034000090E00E94031781E06AE00E94D91685E7E8
:1034100090E00E9403172E960FB6F894DEBF0FBE01
:10342000CDBFCF91DF910895DF93CF93CDB7DEB7B6
:103430000E9499178CE790E00E94031781E060E0FA
:103440000E94D91687E890E00E94031780E06AE0A6
:103450000E94D91683E990E00E940317CF91DF9173
:103460000895DF93CF93CDB7DEB70E9499178AE90D
:1034700090E00E94031781E060E00E94D9168FE976
:1034800090E00E940317CF91DF910895DF93CF93CF
:10349000CDB7DEB70E94991785EA90E00E94031726
:1034A00081E060E00E94D9168AEA90E00E9403174A
:1034B000CF91DF9108950F931F93DF93CF93CDB7F3
:1034C000DEB7C551D1400FB6F894DEBF0FBECDBFF9
:1034D00081E090E061E070E00E949E0981E061E09F
:1034E0000E94B40D0E949B05FE01E750FF4F108221
:1034F00080E090E060E070E00E94061182E090E0E1
:1035000061E070E00E94061183E090E061E070E00D
:103510000E9406110E943D16CE018B5F9E4FC15F37
:10352000DE4F99838883CF50D140C15FDE4FA881A1
:10353000B981CF50D140CF5EDE4FB983A883C1514E
:10354000D140E1EFF0E0CD5EDE4FF983E883C35177
:10355000D140F7E0CB5EDE4FF883C551D140CD5E60
:10356000DE4FA881B981C351D1400C90CD5EDE4FB2
:10357000E881F981C351D1403196CD5EDE4FF983A8
:10358000E883C351D140CF5EDE4FA881B981C151DC
:10359000D1400C92CF5EDE4FE881F981C151D1401C
:1035A0003196CF5EDE4FF983E883C151D140CB5EC7
:1035B000DE4FF881C551D140F150CB5EDE4FF8832C
:1035C000C551D140CB5EDE4F8881C551D1408823A3
:1035D00031F683E0C15FDE4FE881F981CF50D14001
:1035E0003796DF01982F1D929A95E9F720EB30E08E
:1035F000FE01E650FF4F80E060E0A9019F010E94BC
:103600002C1781E060E00E94D9160E94D311FE01C0
:10361000E850FF4F8083FE01E850FF4F80818130EA
:1036200009F0CEC08AE20E944E14FE01E750FF4F1F
:103630008081282F30E0CE0185509F4FFC01E20FA2
:10364000F31F81E38083DE01A750BF4FFE01E750E7
:10365000FF4F80818F5F8C93FE01E551FF4F80E02B
:1036600090E0ACE0B2E480839183A283B3838E01C7
:1036700009511F4FFE01E551FF4F60817181828129
:10368000938120E030E04AE755E40E941702DC0114
:10369000CB01F80180839183A283B383FE01E951BA
:1036A000FF4F608171818281938120E030E040E8AA
:1036B0005FE30E947103882344F4FE01EB51FF4F46
:1036C00081E090E09183808364C0FE01E951FF4F67
:1036D000608171818281938120E03FEF4FE757E461
:1036E0000E94110318160CF043C0FE01E551FF4F74
:1036F000608171818281938120E030E040E251E479
:103700000E941702DC01CB018E010B511F4FBC013F
:10371000CD010E944100DC01CB01F801918380833F
:103720001FC0FE01ED51FF4F80E991E0918380833E
:10373000FE01ED51FF4F808191810197F1F7FE016C
:10374000ED51FF4F91838083DE01AB51BF4FFE01EE
:10375000EB51FF4F80819181019711969C938E933D
:10376000FE01EB51FF4F808191810097D1F628C077
:103770008E010B511F4FFE01E951FF4F6081718196
:10378000828193810E944100DC01CB01F801918389
:103790008083DE01AF51BF4FFE01EB51FF4F8081AF
:1037A000918111969C938E93FE01EF51FF4F808182
:1037B00091810197F1F7FE01EF51FF4F91838083D3
:1037C000FE01E850FF4F8081823009F0CEC08AE2CE
:1037D0000E944E14FE01E750FF4F8081282F30E0F9
:1037E000CE0185509F4FFC01E20FF31F82E38083DF
:1037F000DE01A750BF4FFE01E750FF4F80818F5F72
:103800008C93FE01E352FF4F80E090E0ACE0B2E425
:1038100080839183A283B3838E0107521F4FFE01E1
:10382000E352FF4F608171818281938120E030E01B
:103830004AE755E40E941702DC01CB01F8018083BE
:103840009183A283B383FE01E752FF4F60817181B0
:103850008281938120E030E040E85FE30E947103C1
:10386000882344F4FE01E952FF4F81E090E0918308
:10387000808364C0FE01E752FF4F608171818281C5
:10388000938120E03FEF4FE757E40E9411031816A1
:103890000CF043C0FE01E352FF4F608171818281D1
:1038A000938120E030E040E251E40E941702DC0105
:1038B000CB018E0109521F4FBC01CD010E94410076
:1038C000DC01CB01F801918380831FC0FE01EB5224
:1038D000FF4F80E991E091838083FE01EB52FF4F1F
:1038E000808191810197F1F7FE01EB52FF4F9183A7
:1038F0008083DE01A952BF4FFE01E952FF4F808154
:103900009181019711969C938E93FE01E952FF4F8E
:10391000808191810097D1F628C08E0109521F4FF6
:10392000FE01E752FF4F60817181828193810E9485
:103930004100DC01CB01F80191838083DE01AD52AF
:10394000BF4FFE01E952FF4F8081918111969C93F8
:103950008E93FE01ED52FF4F808191810197F1F727
:10396000FE01ED52FF4F91838083FE01E850FF4F2F
:103970008081833009F0CEC08AE20E944E14FE019D
:10398000E750FF4F8081282F30E0CE0185509F4FB8
:10399000FC01E20FF31F83E38083DE01A750BF4FDA
:1039A000FE01E750FF4F80818F5F8C93FE01E15352
:1039B000FF4F80E090E0ACE0B2E480839183A2838B
:1039C000B3838E0105531F4FFE01E153FF4F60810A
:1039D00071818281938120E030E04AE755E40E94C2
:1039E0001702DC01CB01F80180839183A283B383AA
:1039F000FE01E553FF4F608171818281938120E058
:103A000030E040E85FE30E947103882344F4FE0144
:103A1000E753FF4F81E090E09183808364C0FE0113
:103A2000E553FF4F608171818281938120E03FEFF8
:103A30004FE757E40E94110318160CF043C0FE0133
:103A4000E153FF4F608171818281938120E030E0FA
:103A500040E251E40E941702DC01CB018E010753C2
:103A60001F4FBC01CD010E944100DC01CB01F801D8
:103A7000918380831FC0FE01E953FF4F80E991E0ED
:103A800091838083FE01E953FF4F808191810197EB
:103A9000F1F7FE01E953FF4F91838083DE01A753C5
:103AA000BF4FFE01E753FF4F80819181019711962F
:103AB0009C938E93FE01E753FF4F80819181009785
:103AC000D1F628C08E0107531F4FFE01E553FF4F6B
:103AD00060817181828193810E944100DC01CB0170
:103AE000F80191838083DE01AB53BF4FFE01E753A2
:103AF000FF4F8081918111969C938E93FE01EB5331
:103B0000FF4F808191810197F1F7FE01EB53FF4F49
:103B100091838083FE01E850FF4F8081843009F05B
:103B2000CEC08AE20E944E14FE01E750FF4F808112
:103B3000282F30E0CE0185509F4FFC01E20FF31F8C
:103B400084E38083DE01A750BF4FFE01E750FF4FA3
:103B500080818F5F8C93FE01EF53FF4F80E090E0F8
:103B6000ACE0B2E480839183A283B3838E010354DB
:103B70001F4FFE01EF53FF4F60817181828193815E
:103B800020E030E04AE755E40E941702DC01CB0157
:103B9000F80180839183A283B383FE01E354FF4F36
:103BA000608171818281938120E030E040E85FE3B1
:103BB0000E947103882344F4FE01E554FF4F81E025
:103BC00090E09183808364C0FE01E354FF4F6081E5
:103BD00071818281938120E03FEF4FE757E40E949B
:103BE000110318160CF043C0FE01EF53FF4F608124
:103BF00071818281938120E030E040E251E40E94B3
:103C00001702DC01CB018E0105541F4FBC01CD0111
:103C10000E944100DC01CB01F801918380831FC029
:103C2000FE01E754FF4F80E991E091838083FE011C
:103C3000E754FF4F808191810197F1F7FE01E7542E
:103C4000FF4F91838083DE01A554BF4FFE01E554F1
:103C5000FF4F80819181019711969C938E93FE0175
:103C6000E554FF4F808191810097D1F628C08E01E5
:103C700005541F4FFE01E354FF4F60817181828123
:103C800093810E944100DC01CB01F8019183808384
:103C9000DE01A954BF4FFE01E554FF4F80819181A1
:103CA00011969C938E93FE01E954FF4F8081918180
:103CB0000197F1F7FE01E954FF4F91838083FE01E4
:103CC000E850FF4F8081853009F0CEC08AE20E9423
:103CD0004E14FE01E750FF4F8081282F30E0CE01C7
:103CE00085509F4FFC01E20FF31F85E38083DE01C7
:103CF000A750BF4FFE01E750FF4F80818F5F8C932D
:103D0000FE01ED54FF4F80E090E0ACE0B2E4808330
:103D10009183A283B3838E0101551F4FFE01ED54A1
:103D2000FF4F608171818281938120E030E04AE71A
:103D300055E40E941702DC01CB01F80180839183D6
:103D4000A283B383FE01E155FF4F608171818281BF
:103D5000938120E030E040E85FE30E947103882314
:103D600044F4FE01E355FF4F81E090E091838083AE
:103D700064C0FE01E155FF4F6081718182819381B2
:103D800020E03FEF4FE757E40E94110318160CF0B4
:103D900043C0FE01ED54FF4F6081718182819381A8
:103DA00020E030E040E251E40E941702DC01CB0148
:103DB0008E0103551F4FBC01CD010E944100DC0163
:103DC000CB01F801918380831FC0FE01E555FF4FB1
:103DD00080E991E091838083FE01E555FF4F80816A
:103DE00091810197F1F7FE01E555FF4F91838083A3
:103DF000DE01A355BF4FFE01E355FF4F8081918146
:103E0000019711969C938E93FE01E355FF4F80819D
:103E100091810097D1F628C08E0103551F4FFE01F6
:103E2000E155FF4F60817181828193810E94410041
:103E3000DC01CB01F80191838083DE01A755BF4FE0
:103E4000FE01E355FF4F8081918111969C938E93E3
:103E5000FE01E755FF4F808191810197F1F7FE0147
:103E6000E755FF4F91838083FE01E850FF4F80812B
:103E7000863009F0CEC08AE20E944E14FE01E7505F
:103E8000FF4F8081282F30E0CE0185509F4FFC01ED
:103E9000E20FF31F86E38083DE01A750BF4FFE01D0
:103EA000E750FF4F80818F5F8C93FE01EB55FF4FF2
:103EB00080E090E0ACE0B2E480839183A283B3839E
:103EC0008E010F551F4FFE01EB55FF4F6081718131
:103ED0008281938120E030E04AE755E40E94170296
:103EE000DC01CB01F80180839183A283B383FE01BF
:103EF000EF55FF4F608171818281938120E030E036
:103F000040E85FE30E947103882344F4FE01E15618
:103F1000FF4F81E090E09183808364C0FE01EF5504
:103F2000FF4F608171818281938120E03FEF4FE7F5
:103F300057E40E94110318160CF043C0FE01EB5524
:103F4000FF4F608171818281938120E030E040E207
:103F500051E40E941702DC01CB018E0101561F4F74
:103F6000BC01CD010E944100DC01CB01F80191832D
:103F700080831FC0FE01E356FF4F80E991E09183EB
:103F80008083FE01E356FF4F808191810197F1F715
:103F9000FE01E356FF4F91838083DE01A156BF4FA0
:103FA000FE01E156FF4F80819181019711969C930C
:103FB0008E93FE01E156FF4F808191810097D1F6EB
:103FC00028C08E0101561F4FFE01EF55FF4F608143
:103FD0007181828193810E944100DC01CB01F80153
:103FE00091838083DE01A556BF4FFE01E156FF4F4E
:103FF0008081918111969C938E93FE01E556FF4F2F
:10400000808191810197F1F7FE01E556FF4F918381
:104010008083FE01E850FF4F8081873009F0CEC0D9
:104020008AE20E944E14FE01E750FF4F8081282F44
:1040300030E0CE0185509F4FFC01E20FF31F87E374
:104040008083DE01A750BF4FFE01E750FF4F808104
:104050008F5F8C93FE01E956FF4F80E090E0ACE06B
:10406000B2E480839183A283B3838E010D561F4FE8
:10407000FE01E956FF4F608171818281938120E0CA
:1040800030E04AE755E40E941702DC01CB01F80159
:1040900080839183A283B383FE01ED56FF4F60813D
:1040A00071818281938120E030E040E85FE30E94EB
:1040B0007103882344F4FE01EF56FF4F81E090E046
:1040C0009183808364C0FE01ED56FF4F6081718152
:1040D0008281938120E03FEF4FE757E40E94110374
:1040E00018160CF043C0FE01E956FF4F6081718144
:1040F0008281938120E030E040E251E40E94170287
:10410000DC01CB018E010F561F4FBC01CD010E9477
:104110004100DC01CB01F801918380831FC0FE01C7
:10412000E157FF4F80E991E091838083FE01E157E1
:10413000FF4F808191810197F1F7FE01E157FF4F19
:1041400091838083DE01AF56BF4FFE01EF56FF4FD4
:1041500080819181019711969C938E93FE01EF5679
:10416000FF4F808191810097D1F628C08E010F56B4
:104170001F4FFE01ED56FF4F608171818281938157
:104180000E944100DC01CB01F80191838083DE01B4
:10419000A357BF4FFE01EF56FF4F808191811196CB
:1041A0009C938E93FE01E357FF4F8081918101978D
:1041B000F1F7FE01E357FF4F91838083FE01E85042
:1041C000FF4F8081883009F0CEC08AE20E944E14F1
:1041D000FE01E750FF4F8081282F30E0CE0185504F
:1041E0009F4FFC01E20FF31F88E38083DE01A7509D
:1041F000BF4FFE01E750FF4F80818F5F8C93FE0120
:10420000E757FF4F80E090E0ACE0B2E48083918319
:10421000A283B3838E010B571F4FFE01E757FF4F59
:10422000608171818281938120E030E04AE755E42A
:104230000E941702DC01CB01F80180839183A283E5
:10424000B383FE01EB57FF4F6081718182819381BF
:1042500020E030E040E85FE30E947103882344F4EB
:10426000FE01ED57FF4F81E090E09183808364C0B1
:10427000FE01EB57FF4F608171818281938120E0C5
:104280003FEF4FE757E40E94110318160CF043C0AC
:10429000FE01E757FF4F608171818281938120E0A9
:1042A00030E040E251E40E941702DC01CB018E01B4
:1042B0000D571F4FBC01CD010E944100DC01CB0115
:1042C000F801918380831FC0FE01EF57FF4F80E903
:1042D00091E091838083FE01EF57FF4F80819181B0
:1042E0000197F1F7FE01EF57FF4F91838083DE01C5
:1042F000AD57BF4FFE01ED57FF4F80819181019770
:1043000011969C938E93FE01ED57FF4F8081918112
:104310000097D1F628C08E010D571F4FFE01EB57B5
:10432000FF4F60817181828193810E944100DC0195
:10433000CB01F80191838083DE01A158BF4FFE01BC
:10434000ED57FF4F8081918111969C938E93FE01D2
:10435000E158FF4F808191810197F1F7FE01E1580B
:10436000FF4F91838083FE01E850FF4F80818930A9
:1043700009F0CEC08AE20E944E14FE01E750FF4FC2
:104380008081282F30E0CE0185509F4FFC01E20F45
:10439000F31F89E38083DE01A750BF4FFE01E75082
:1043A000FF4F80818F5F8C93FE01E558FF4F80E0C7
:1043B00090E0ACE0B2E480839183A283B3838E016A
:1043C00009581F4FFE01E558FF4F608171818281BE
:1043D000938120E030E04AE755E40E941702DC01B7
:1043E000CB01F80180839183A283B383FE01E95856
:1043F000FF4F608171818281938120E030E040E84D
:104400005FE30E947103882344F4FE01EB58FF4FE1
:1044100081E090E09183808364C0FE01E958FF4F02
:10442000608171818281938120E03FEF4FE757E403
:104430000E94110318160CF043C0FE01E558FF4F0F
:10444000608171818281938120E030E040E251E41B
:104450000E941702DC01CB018E010B581F4FBC01DB
:10446000CD010E944100DC01CB01F80191838083E2
:104470001FC0FE01ED58FF4F80E991E091838083DA
:10448000FE01ED58FF4F808191810197F1F7FE0108
:10449000ED58FF4F91838083DE01AB58BF4FFE0183
:1044A000EB58FF4F80819181019711969C938E93D9
:1044B000FE01EB58FF4F808191810097D1F628C013
:1044C0008E010B581F4FFE01E958FF4F608171812B
:1044D000828193810E944100DC01CB01F80191832C
:1044E0008083DE01AF58BF4FFE01EB58FF4F808144
:1044F000918111969C938E93FE01EF58FF4F80811E
:1045000091810197F1F7FE01EF58FF4F918380836E
:10451000FE01E850FF4F80818A3209F0CEC08AE266
:104520000E944E14FE01E750FF4F8081282F30E09B
:10453000CE0185509F4FFC01E20FF31F8AE280837A
:10454000DE01A750BF4FFE01E750FF4F80818F5F14
:104550008C93FE01E359FF4F80E090E0ACE0B2E4C1
:1045600080839183A283B3838E0107591F4FFE017D
:10457000E359FF4F608171818281938120E030E0B7
:104580004AE755E40E941702DC01CB01F801808361
:104590009183A283B383FE01E759FF4F608171814C
:1045A0008281938120E030E040E85FE30E94710364
:1045B000882344F4FE01E959FF4F81E090E09183A4
:1045C000808364C0FE01E759FF4F60817181828161
:1045D000938120E03FEF4FE757E40E941103181644
:1045E0000CF043C0FE01E359FF4F6081718182816D
:1045F000938120E030E040E251E40E941702DC01A8
:10460000CB018E0109591F4FBC01CD010E94410011
:10461000DC01CB01F801918380831FC0FE01EB59BF
:10462000FF4F80E991E091838083FE01EB59FF4FBA
:10463000808191810197F1F7FE01EB59FF4F918342
:104640008083DE01A959BF4FFE01E959FF4F8081E8
:104650009181019711969C938E93FE01E959FF4F2A
:10466000808191810097D1F628C08E0109591F4F92
:10467000FE01E759FF4F60817181828193810E9421
:104680004100DC01CB01F80191838083DE01AD594B
:10469000BF4FFE01E959FF4F8081918111969C9394
:1046A0008E93FE01ED59FF4F808191810197F1F7C3
:1046B000FE01ED59FF4F91838083FE01E850FF4FCB
:1046C0008081882309F0CEC08AE20E944E14FE0148
:1046D000E750FF4F8081282F30E0CE0185509F4F5B
:1046E000FC01E20FF31F80E38083DE01A750BF4F80
:1046F000FE01E750FF4F80818F5F8C93FE01E15AEE
:10470000FF4F80E090E0ACE0B2E480839183A2832D
:10471000B3838E01055A1F4FFE01E15AFF4F60819E
:1047200071818281938120E030E04AE755E40E9464
:104730001702DC01CB01F80180839183A283B3834C
:10474000FE01E55AFF4F608171818281938120E0F3
:1047500030E040E85FE30E947103882344F4FE01E7
:10476000E75AFF4F81E090E09183808364C0FE01AF
:10477000E55AFF4F608171818281938120E03FEF94
:104780004FE757E40E94110318160CF043C0FE01D6
:10479000E15AFF4F608171818281938120E030E096
:1047A00040E251E40E941702DC01CB018E01075A5E
:1047B0001F4FBC01CD010E944100DC01CB01F8017B
:1047C000918380831FC0FE01E95AFF4F80E991E089
:1047D00091838083FE01E95AFF4F80819181019787
:1047E000F1F7FE01E95AFF4F91838083DE01A75A5A
:1047F000BF4FFE01E75AFF4F8081918101971196CB
:104800009C938E93FE01E75AFF4F80819181009720
:10481000D1F628C08E01075A1F4FFE01E55AFF4FFF
:1048200060817181828193810E944100DC01CB0112
:10483000F80191838083DE01AB5ABF4FFE01E75A36
:10484000FF4F8081918111969C938E93FE01EB5ACC
:10485000FF4F808191810197F1F7FE01EB5AFF4FE5
:1048600091838083FE01E850FF4F8081833209F0FD
:10487000CEC08AE20E944E14FE01E750FF4F8081B5
:10488000282F30E0CE0185509F4FFC01E20FF31F2F
:1048900083E28083DE01A750BF4FFE01E750FF4F48
:1048A00080818F5F8C93FE01EF5AFF4F80E090E094
:1048B000ACE0B2E480839183A283B3838E01035B77
:1048C0001F4FFE01EF5AFF4F6081718182819381FA
:1048D00020E030E04AE755E40E941702DC01CB01FA
:1048E000F80180839183A283B383FE01E35BFF4FD2
:1048F000608171818281938120E030E040E85FE354
:104900000E947103882344F4FE01E55BFF4F81E0C0
:1049100090E09183808364C0FE01E35BFF4F608180
:1049200071818281938120E03FEF4FE757E40E943D
:10493000110318160CF043C0FE01EF5AFF4F6081BF
:1049400071818281938120E030E040E251E40E9455
:104950001702DC01CB018E01055B1F4FBC01CD01AD
:104960000E944100DC01CB01F801918380831FC0CC
:10497000FE01E75BFF4F80E991E091838083FE01B8
:10498000E75BFF4F808191810197F1F7FE01E75BC3
:10499000FF4F91838083DE01A55BBF4FFE01E55B86
:1049A000FF4F80819181019711969C938E93FE0118
:1049B000E55BFF4F808191810097D1F628C08E0181
:1049C000055B1F4FFE01E35BFF4F608171818281B8
:1049D00093810E944100DC01CB01F8019183808327
:1049E000DE01A95BBF4FFE01E55BFF4F8081918136
:1049F00011969C938E93FE01E95BFF4F808191811C
:104A00000197F1F7FE01E95BFF4F91838083FE017F
:104A1000E750FF4F8081863011F00C94051BFE019A
:104A2000EA50FF4F11821082FE01EA50FF4F808151
:104A300091818530910514F00C94051BFE01EA501C
:104A4000FF4F20813181CE0185509F4FFC01E20F45
:104A5000F31F4081FE01EA50FF4F20813181CE01DA
:104A60008B5F9E4FFC01E20FF31F8081481709F016
:104A700053C30E9499178FEB90E00E940317FE0129
:104A8000ED5BFF4F80E090E0ACE0B2E48083918387
:104A9000A283B3838E01015C1F4FFE01ED5BFF4FCC
:104AA000608171818281938120E030E04AE755E4A2
:104AB0000E941702DC01CB01F80180839183A2835D
:104AC000B383FE01FF96608171818281938120E032
:104AD00030E040E85FE30E94710388232CF481E01A
:104AE00090E09EAF8DAF46C0FE01FF966081718160
:104AF0008281938120E03FEF4FE757E40E9411034A
:104B0000181664F5FE01ED5BFF4F608171818281B3
:104B1000938120E030E040E251E40E941702DC0182
:104B2000CB01BC01CD010E944100DC01CB019EAF55
:104B30008DAF0FC080E991E09CAF8BAF8BAD9CAD8A
:104B40000197F1F79CAF8BAF8DAD9EAD01979EAFF6
:104B50008DAF8DAD9EAD009769F716C0FE01FF9633
:104B600060817181828193810E944100DC01CB01CF
:104B70009EAF8DAF8DAD9EAD9AAF89AF89AD9AAD29
:104B80000197F1F79AAF89AF0E94991780ED90E0F5
:104B90000E94031781E060E00E94D91681EE90E048
:104BA0000E9403170E9479190E94D311FE01EB5055
:104BB000FF4F8083FE01EB50FF4F8081813009F071
:104BC0003FC20E94141A80E090E0ACE0B2E48DABEA
:104BD0009EABAFABB8AF6DA97EA98FA998AD20E011
:104BE00030E04AE755E40E941702DC01CB0189ABB3
:104BF0009AABABABBCAB69A97AA98BA99CA920E005
:104C000030E040E85FE30E94710388232CF481E0E8
:104C100090E098AB8FA73FC069A97AA98BA99CA9FE
:104C200020E03FEF4FE757E40E94110318164CF5C0
:104C30006DA97EA98FA998AD20E030E040E251E453
:104C40000E941702DC01CB01BC01CD010E94410092
:104C5000DC01CB0198AB8FA70FC080E991E09EA744
:104C60008DA78DA59EA50197F1F79EA78DA78FA56E
:104C700098A9019798AB8FA78FA598A9009769F776
:104C800014C069A97AA98BA99CA90E944100DC01E2
:104C9000CB0198AB8FA78FA598A99CA78BA78BA5B5
:104CA0009CA50197F1F79CA78BA70E94D311FE0149
:104CB000EC50FF4F8083FE01EC50FF4F808181302C
:104CC00029F480E060E00E94EC0DEFCFFE01EC5093
:104CD000FF4F8081823009F07AC080E00E94740E1C
:104CE00080E090E0ACE0B2E48FA398A7A9A7BAA7B0
:104CF0006FA178A589A59AA520E030E04AE755E4A0
:104D00000E941702DC01CB018BA39CA3ADA3BEA321
:104D10006BA17CA18DA19EA120E030E040E85FE383
:104D20000E94710388232CF481E090E09AA389A368
:104D30003FC06BA17CA18DA19EA120E03FEF4FE77A
:104D400057E40E94110318164CF56FA178A589A5A8
:104D50009AA520E030E040E251E40E941702DC0115
:104D6000CB01BC01CD010E944100DC01CB019AA323
:104D700089A30FC080E991E098A38F8F8F8D98A1B0
:104D80000197F1F798A38F8F89A19AA101979AA310
:104D900089A389A19AA1009769F714C06BA17CA18E
:104DA0008DA19EA10E944100DC01CB019AA389A3A1
:104DB00089A19AA19E8F8D8F8D8D9E8D0197F1F780
:104DC0009E8F8D8F80E061E00E94EC0D6ECFFE0122
:104DD000EC50FF4F8081833009F067CF80E00E9464
:104DE000740E0E9479190E94D311FE01ED50FF4FFD
:104DF0008083FE01ED50FF4F8081813009F013C1A7
:104E00000E94141A80E090E0ACE0B2E4898F9A8F9F
:104E1000AB8FBC8F698D7A8D8B8D9C8D20E030E0BF
:104E20004AE755E40E941702DC01CB018D8B9E8B73
:104E3000AF8BB88F6D897E898F89988D20E030E0A7
:104E400040E85FE30E94710388232CF481E090E046
:104E50009C8B8B8B3FC06D897E898F89988D20E0DC
:104E60003FEF4FE757E40E94110318164CF5698D88
:104E70007A8D8B8D9C8D20E030E040E251E40E94E1
:104E80001702DC01CB01BC01CD010E944100DC0115
:104E9000CB019C8B8B8B0FC080E991E09A8B898B27
:104EA00089899A890197F1F79A8B898B8B899C89DB
:104EB00001979C8B8B8B8B899C89009769F714C019
:104EC0006D897E898F89988D0E944100DC01CB011C
:104ED0009C8B8B8B8B899C89988B8F878F859889EE
:104EE0000197F1F7988B8F8783ED91E1FE01EE50EA
:104EF000FF4F8083FE01EE50FF4F8081813029F407
:104F000080E060E00E94EC0DEFCFFE01EE50FF4F1D
:104F10008081823009F07AC080E00E94740E80E0C7
:104F200090E0ACE0B2E48B879C87AD87BE876B8551
:104F30007C858D859E8520E030E04AE755E40E941F
:104F40001702DC01CB018F839887A987BA876F810D
:104F5000788589859A8520E030E040E85FE30E940B
:104F6000710388232CF481E090E09E838D833FC001
:104F70006F81788589859A8520E03FEF4FE757E478
:104F80000E94110318164CF56B857C858D859E85D6
:104F900020E030E040E251E40E941702DC01CB0146
:104FA000BC01CD010E944100DC01CB019E838D83B9
:104FB0000FC080E991E09C838B838B819C8101975A
:104FC000F1F79C838B838D819E8101979E838D83D6
:104FD0008D819E81009769F714C06F8178858985DE
:104FE0009A850E944100DC01CB019E838D838D81D7
:104FF0009E819A83898389819A810197F1F79A83A7
:10500000898380E061E00E94EC0D6ECFFE01EE50DE
:10501000FF4F8081833009F067CF80E00E94740EDB
:105020000E94791961CFFE01ED50FF4F80818230DF
:1050300009F0D9CE80E00E94740E0E949917D3CE59
:10504000FE01EB50FF4F8081823009F058C00E9472
:10505000311A0E94D311FE01EF50FF4F8083FE01F1
:10506000EF50FF4F8081813011F50E94461A0E9457
:10507000D311FE01E051FF4F8083FE01E051FF4F4D
:105080008081813039F48AE590E060E070E00E9430
:105090000006EDCFFE01E051FF4F8081823039F7ED
:1050A0008AE590E061E070E00E940006E0CFFE013A
:1050B000EF50FF4F8081823061F60E94461A0E94B5
:1050C000D311FE01E151FF4F8083FE01E151FF4FFB
:1050D0008081813039F484EB90E060E070E00E94E0
:1050E0000006EDCFFE01E151FF4F8081823039F79C
:1050F00084EB90E061E070E00E940006E0CFFE01EA
:10510000EB50FF4F8081833009F04ECD80E00E944C
:10511000740E0E94991748CD0E9499178BEE90E06B
:105120000E9403170C94051B2F923F924F925F929F
:105130006F927F928F929F92AF92BF92CF92DF92A7
:10514000EF92FF920F931F93CF93DF93CDB7DEB70C
:10515000CA1BDB0B0FB6F894DEBF0FBECDBF0994A0
:105160002A88398848885F846E847D848C849B84F7
:10517000AA84B984C884DF80EE80FD800C811B8105
:10518000AA81B981CE0FD11D0FB6F894DEBF0FBE34
:0A519000CDBFED010895F894FFCFA4
:10519A00312D4443204D6F746F7200322D53746564
:1051AA007070657200332D4578697400312D43574C
:1051BA00204D6F746F7200322D434357204D6F7428
:1051CA006F7200332D6261636B00312D393000320A
:1051DA002D31383000312D435700322D43435700CB
:1051EA00456E7465722050617373776F7264004301
:1051FA006F72726563742050617373776F726400A3
:10520A0057656C636F6D6520746F204D6F746F7294
:10521A000044616368426F617264004572726F7222
:10522A00002332303230230000000000000000006A
:04523A000000000070
:00000001FF
